:020000041000EA
:1004000000940008830400100D0000006DE000104F
:1004100000000000000000000000000000000000DC
:1004200000000000000000000000000055E0001087
:10043000000000000000000019E00010010500109D
:1004400001050010319E001001050010010500108B
:10045000010500100105001001050010119D00109C
:100460000105001001050010010500100105001034
:100470000105001001050010010500100105001024
:100480007047FFF7FDFF72B6164C174DAC4209DA04
:1004900021686268A368043B02DBC858D050FAE7C1
:1004A0000C34F3E7114B124CA34208DA19685A686E
:1004B0000020043A01DB8850FBE70833F4E70D48DD
:1004C0000D490860BFF34F8F09F0D2FCEFF31480A1
:1004D0000221084380F31488084880F309880CF04F
:1004E0001BFFFEE7200500108C0500108C05001096
:1004F000E405001000B5010808ED00E0009C0008CC
:10050000FEE7FEE700B504207146084202D0EFF393
:10051000098001E0EFF30880043026F069FAFEE775
:100520000004001000B5010880000000001703104F
:1005300080B50108AC020000A016031000180008E6
:1005400000000000A0160310009C0008000000003E
:10055000A016031080C200086000000000170310FE
:1005600080D20008000000000017031080A00108DE
:10057000000000000017031000A6010800000000A2
:0C058000AC19031000F80208C0040000D1
:10058C002CB80108A83F0000009C000820180000AF
:10059C0080B40008000E0000E0C2000880080000D3
:1005AC0080CB00080007000080D20008E0AD0000FE
:1005BC00808001080020000080A0010820000000BD
:1005CC0000A101080005000000A60108800200003F
:0805DC0080A80108000C0000DA
:0805E40000000000000000000F
:1005EC0000000000000000000000000000000000FF
:1005FC0000000000000000000000000000000000EF
:1006200010B50A22002100F0EBF910BD10B50A2226
:10063000002100F0A5FA10BD10B5034B0A0001001F
:10064000186800F047F810BD54B60108084B10B503
:100650000400002B02D0002100E000BF054B186809
:10066000836A002B00D0984720002CF0BBFFC046C7
:1006700000000000C40B0010EC3000687047000060
:10068000044B1B681B6A002B00D1034BEC3318682A
:100690007047C04654B60108B8B6010810B5034B00
:1006A0000100186800F024F810BDC04654B60108D7
:1006B00082B0002900D101A9101E06D0002B06D05F
:1006C00013780B601078431E984102B070470220E7
:1006D0004042FAE74A4370B51100140000F052F8A6
:1006E000051E03D02200002101F080FD280070BD0E
:1006F00070B50500002910D00C1F2368002B00DA0C
:10070000E418280000F05CFA1D4A1368002B05D19C
:1007100063601460280000F054FA70BDA34209D948
:10072000216860188342F3D118685B684118216022
:10073000EEE713005A68002A01D0A242F9D91968DD
:100740005818A0420BD12068091858181960824225
:10075000E0D110685268411819605A60DAE7A04287
:1007600002D90C232B60D5E721686018824203D19F
:10077000106852684118216062605C60CAE7C04638
:10078000ACF60108032370B5CD1C9D430835060067
:100790000C2D1ED20C25A9421DD8300000F010FAF5
:1007A000254A14682100002919D1244C2368002B04
:1007B00003D1300000F044F820602900300000F040
:1007C0003FF8431C2BD10C233000336000F0F9F9C3
:1007D00003E0002DDFDA0C233360002070BD0B68CE
:1007E0005B1B19D40B2B03D90B60CC18256003E0DD
:1007F0004B688C420DD11360300000F0E2F920000C
:1008000007220B30231D9043C31AE7D05A42E2500F
:10081000E4E763600C00EFE70C004968C3E70323DB
:10082000C41C9C43A042E1D0211A300000F008F81B
:10083000431CDBD1C7E7C046ACF60108B0F601089F
:10084000002370B5064C0500080023602CF0BCFEA8
:10085000431C03D12368002B00D02B6070BDC04621
:10086000D0F70108C9B20378002B04D08B4200D125
:1008700070470130F7E74B42594149420840F7E7DA
:1008800002780B78002A03D0013001319A42F7D068
:10089000D01A70470023C25C0133002AFBD1581ED6
:1008A000704730B50500002A00D130BD0C78013A00
:1008B0006B1C2C700131002C05D19A189A42F4D08F
:1008C0001C700133FAE71D00EDE710B50378002B2B
:1008D0000FD10B785A4253415B42184010BD0023A0
:1008E000CA5C002AFAD0C45C944201D10133F7E714
:1008F00001300378002BF2D11800EFE7F0B51F00AC
:100900000E0087B00590019102920C983478FFF7A1
:10091000B3FE082200194378751C134036D12D2CE4
:1009200036D1B51C74780126002F62D0102F09D162
:10093000302C07D120222B789343582B54D11027E9
:100940006C7802352D4B3900F3181800039300F032
:100950007BFA049101210023494202008C461800D1
:100960002100303909291AD80C00A74223DD591C6F
:1009700009D06346824206D302D10499A14202DB28
:100980000123784320182C780135E9E72E00BCE7D5
:100990002B2C01D01E00C7E7B51C7478FAE72100A4
:1009A0004139192901D8373CDFE72100613919297C
:1009B00001D8573CD9E75A1C08D1059A2333136054
:1009C000029B0398002B09D107B0F0BD002E00D088
:1009D0004042029A002AF7D0002B01D06B1E0193EF
:1009E000029B019A1A60EFE73024002FAAD1082752
:1009F000A8E7302C9ED00A27A4E7C046FFFFFF7F60
:100A000037B51300064A05001068046A002C00D1AF
:100A1000044C0A0000942900FFF770FF3EBDC04659
:100A200054B60108B8B60108F0B51F000E008DB02D
:100A30000B900291039212983478FFF71DFE082262
:100A400000194378751C134053D12D2C53D1747861
:100A5000B51C01330193002F00D18AE0102F0AD179
:100A6000302C08D120222B789343582B00D07AE0E9
:100A700010276C780235019B002B41D1013B049378
:100A80003E4B05933A00FB1704980599089300F034
:100A90001FFA002309900E00002000210A92220074
:100AA000303A092A31D81400A7423DDD5A1C1DD026
:100AB000B14236D802D1099B984232D8099B834271
:100AC00006D18E4204D101230A9A5B42A2420DDB79
:100AD0000B0002000899380000F01AFAE317069498
:100AE0000793069B079CC018614101232C780135B0
:100AF000D5E72E009FE72B2CACD1B51C7478A9E765
:100B00000023049380231B06BBE72200413A192AE5
:100B100001D8373CC8E72200613A192A04D8573C6B
:100B2000C2E701235B42E1E75A1C09D10B9A233348
:100B30001360039B04980599002B0ED10DB0F0BDF6
:100B4000019A002A04D006000F0000217042B9412A
:100B5000039A002AF2D0002B01D06B1E0293039B54
:100B6000029A1A60EAE73024002F00D083E70827B2
:100B700081E7302C00D175E70A277CE7FFFFFF7F74
:100B800037B51300064A05001068046A002C00D12E
:100B9000044C0A0000942900FFF746FF03B030BD63
:100BA00054B60108B8B601080B1E04D0FF2A04D9B8
:100BB0008A2303608B3B180070470A700123FAE711
:100BC0007047704758B601084300504F53495800CA
:100BD0002E00002020202020202020202828282827
:100BE00028202020202020202020202020202020FD
:100BF000202020881010101010101010101010104D
:100C0000101010040404040404040404041010105C
:100C10001010101041414141414101010101010108
:100C20000101010101010101010101010101101096
:100C300010101010424242424242020202020202DC
:100C40000202020202020202020202020202101068
:100C50001010200000000000000000000000000054
:100C60000000000000000000000000000000000084
:100C70000000000000000000000000000000000074
:100C80000000000000000000000000000000000064
:100C90000000000000000000000000000000000054
:100CA0000000000000000000000000000000000044
:100CB0000000000000000000000000000000000034
:100CC0000000000000000000000000000000000024
:100CD0000000000000000000080000000800000004
:100CE0000002000000000000000000000000000002
:100CF00000000000000000000000000000000000F4
:100D00000B0000003F000000000000003F0000005A
:100D10000000000002B4714649084900095C49001E
:100D20008E4402BC7047C04603B471464908400077
:100D30004900095A49008E4403BC70470022430809
:100D40008B4274D303098B425FD3030A8B4244D393
:100D5000030B8B4228D3030C8B420DD3FF220902D5
:100D600012BA030C8B4202D31212090265D0030B94
:100D70008B4219D300E0090AC30B8B4201D3CB038A
:100D8000C01A5241830B8B4201D38B03C01A5241CC
:100D9000430B8B4201D34B03C01A5241030B8B42CE
:100DA00001D30B03C01A5241C30A8B4201D3CB02B9
:100DB000C01A5241830A8B4201D38B02C01A52419E
:100DC000430A8B4201D34B02C01A5241030A8B42A1
:100DD00001D30B02C01A5241CDD2C3098B4201D3B9
:100DE000CB01C01A524183098B4201D38B01C01A37
:100DF000524143098B4201D34B01C01A52410309AE
:100E00008B4201D30B01C01A5241C3088B4201D35C
:100E1000CB00C01A524183088B4201D38B00C01A09
:100E2000524143088B4201D34B00C01A5241411A30
:100E300000D20146524110467047FFE701B500203D
:100E400000F006F802BDC0460029F7D076E77047EB
:100E50007047C0468446101C62468C46191C634687
:100E600000E0C0461FB500F0FFFC002801D40021BF
:100E7000C8421FBD10B500F057FC4042013010BD04
:100E800010B500F0F1FC002801DB002010BD0120AE
:100E900010BDC04610B500F0E7FC002801DD0020C1
:100EA00010BD012010BDC04610B500F079FC00282F
:100EB00001DC002010BD012010BDC04610B500F0BF
:100EC0006FFC002801DA002010BD012010BDC046D3
:100ED000002B11D1002A0FD1002900D1002802D007
:100EE0000021C943081C07B4024802A1401802901F
:100EF00003BDC0465DFFFFFF03B4684601B502981D
:100F000000F04EF8019B9E4602B00CBC7047C046F4
:100F1000F0B5CE46474615042D0C2E0080B50704CB
:100F2000140C3F0C9946030C7E435D4367436343B7
:100F30007F19340CE4199C46A54203D980235B0237
:100F40009846C4444B4643435143250C36046544FC
:100F5000360C2404A4195B19591820000CBC9046C7
:100F60009946F0BD70B500220C4B04000D00FFF750
:100F7000A5FF002804D12000290001F025F870BD4C
:100F8000064B00222000290000F0D6FC01F01CF8DE
:100F900080231B069C466044F1E7C0460000E04108
:100FA000F0B54F464646D646C0B5040082B00D00A7
:100FB000914698468B422FD82CD04146484601F0A6
:100FC00091F829000600200001F08CF8331A9C46A5
:100FD000203B9A4600D576E04B46524693401F0090
:100FE0004B46624693401E00AF4228D825D0534658
:100FF000A41BBD41002B00DA7BE0002200230092FD
:10100000019301235246934001930123624693408A
:10101000009318E08242D0D900220023009201936D
:101020000A9B002B01D01C605D600098019902B002
:101030001CBC90469946A246F0BDA342D7D90022D7
:101040000023009201936346002BE9D0FB079846EA
:10105000414672080A437B0866460EE0AB4201D166
:10106000A2420CD8A41A9D41012024196D410021EF
:10107000013E24184D41002E06D0AB42EED9013E70
:1010800024196D41002EF8D100980199534600199A
:101090006941002B23DB2B005246D3402A006446D3
:1010A000E2401C0053461500002B2DDB260057465E
:1010B000BE40330026006746BE403200801A994188
:1010C00000900191ACE7624620239B1A4A46DA4021
:1010D0006146130042468A4017001F4380E762467C
:1010E00020239B1A2A0066469A402300F3401343AC
:1010F000D4E76246202300219B1A0022009101922E
:101100000122DA40019280E72023624626009B1AE2
:10111000DE402F00B0466646B74046463B003343AC
:10112000C8E7C046F0B55746DE464E464546E0B5F0
:10113000834607000E03480085B092461C00360B1C
:10114000400DCD0F002800D19DE0954B984239D03D
:101150008023F6001B041E43924A7B0F33439946BB
:10116000944603006344009300230026FF0002938B
:1011700023031B0B98466300E40F52465B0D01945A
:1011800000D1B3E086498B4200D19EE04246D100B7
:10119000802212040A435146490F11438B4681496C
:1011A00052468C4600996344CB1A0021D20000932A
:1011B0002B0063409A460F2E00D905E17A4BB6000A
:1011C0009B599F465B463343994600D0B8E00223C3
:1011D0000826002700900293CAE7CB463A000299FE
:1011E0000195019B9A46022927D0032900D180E26C
:1011F000012944D06D49009B8C4663441C00002C9F
:1012000038DD530700D013E2D2085B46DB0109D575
:101210005946674B19408B468021C9008C46009B7C
:1012200063441C00634B9C4207DC5B4664055F071C
:101230005B0217431B0B620D02E000230027584A94
:1012400000211B031C0B0B0D1B05234314055A4ADD
:10125000380013401C4353466400DB0764081C43FA
:10126000210005B03CBC90469946A246AB46F0BD75
:101270000122524201231B1B382B00DCADE100226E
:1012800000230027DCE75B46334399465ED0002EFF
:1012900000D18AE1300000F007FF03000B3B1C2B5C
:1012A00000DD7BE11D22D31A5A460100DA400839DD
:1012B0008E4013005F46334399468F403F4B0026D4
:1012C0001B1A00930023029352E7414653460B43F7
:1012D0003B499B468C46009B634400935B46002B36
:1012E0003BD1022300221E43022161E74346134300
:1012F0009B4637D04346002B00D162E1404600F0C8
:10130000D3FE03000B3B1C2B00DD53E102004146E2
:10131000083A914088461D21CB1A5146D9400B000E
:1013200041460B439B46534693401A00009B254978
:101330009C46604403008C4663440093002137E7D9
:101340000323B14600900C26029311E7002300937B
:1013500001330426002702930AE70323C3461E43F2
:10136000032125E701331E430022012120E700234A
:101370009A46802300271B03094A61E780234946D8
:101380001B03194200D1E2E05946194200D0DEE0C9
:101390000B431B0317001B0BA246014A50E7C04634
:1013A000FF07000001FCFFFFFC200010FF0300000E
:1013B000FFFFFFFEFE070000FFFF0F800DFCFFFF99
:1013C00001F8FFFFF3030000D94500D9CBE000D1BD
:1013D000C6E03C0048460027009B013B00935B466B
:1013E000160E1B021E431302984633041B0C99462B
:1013F000310C0191FFF728FD4A4642430B04210CB2
:10140000050019438A4207D98919013D8E4203D844
:101410008A4201D9851E8919881A0199FFF714FD9E
:1014200009048C464A46210464464243090C0300E1
:1014300021438A4204D98919013B8E4200D8F1E048
:101440002D041D43AB464346891A4246280C12041C
:101450001D0C5B46140C22001B041B0C5A43039406
:101460006B434443029568431B19150CEB189C42CF
:1014700003D980246402A44660441C0C15041B0498
:101480002D0C20185D19814277D373D00C1AA24A13
:101490007D1BAF42BF419446009B7F426344E01BEB
:1014A0001C00864200D1DBE00199FFF7CDFC4A46E3
:1014B00042430B04290C070019438A4207D98919B2
:1014C000013F8E4203D88A4201D9871E8919881AA2
:1014D0000199FFF7B9FC09044A46894629044D469B
:1014E0004243090C030029438A4207D98919013B69
:1014F0008E4203D88A4201D9831E89193F04891A72
:101500003A00039F1A43380013041B0C58438146CA
:101510000298150C6F43434345434846000C8446EC
:10152000DB1963449F4203D980204002844665440E
:1015300048461F0C00041B04000C7D191818A94212
:1015400000D284E000D17FE001231A4357E68023D4
:101550004A461B0313431B031B0BAA466F4A6FE645
:10156000BA4200D935E74B46DC0758087B081C43D4
:10157000FF0734E70024AF4289D247444745A441DE
:101580005B466442A4196418013BA6421ED2A042E5
:101590006DD800D1B6E0241A9B4678E703005A467E
:1015A000283B9A400027914688E6584600F07CFD8B
:1015B000203072E603005246283B9A4093460022B0
:1015C000B4E6504600F070FD20309AE6A642E2D123
:1015D000B845DCD9341A9B4659E71F2B65DC504CC3
:1015E0000099A4465C46614408008C40110082408A
:1015F000D940501E82410C4314435A46DA4013002E
:10160000620709D00F222240042A05D02200141DAF
:101610009442894149425B181A0262D50122002393
:1016200000270DE68A4200D80AE7831E891907E7DA
:101630000F231340042B00D1E6E5171D974292417A
:1016400053429B44FA08E0E5002800D1D7E5711821
:10165000531EB14227D3A94215D358D01A0073E7BD
:10166000002B00DC04E6012300229B44CDE502238D
:101670004744474589415B429C46494289190C19B8
:10168000E344241A03E743465F0047459B41B846BD
:101690005B429E19023A8919A94200D054E740459D
:1016A00000D051E7ABE51A00F6E71F215F4649423B
:1016B0000C1BE740202B07D01A49009B8C46634443
:1016C00018005B4683401A43501E82413A43072765
:1016D0000023174009D00F210023114014000429D2
:1016E00095D122005F075B021B0BD2081743002233
:1016F000A6E5802359461B030B431B0317001B0B56
:10170000064A9DE5BD42B2D89B460024BFE680450F
:10171000B9D31A00C3E7C046FF030000FF0700006B
:101720001E0400003E040000F0B54F464646D64673
:101730008446C0B58046194E18030F034D00000BB8
:101740005C0082463F0B6D0DC90F9146640DDB0FA7
:101750000120B5420AD0B44203D0A54201D1574579
:101760000CD01CBC90469946A246F0BD66463E434E
:10177000F7D1AC42F5D154461443F2D10120C8450B
:10178000EFD1994207D0002DEBD163461F433800BB
:10179000471EB841E5E70020E3E7C046FF07000029
:1017A000F0B54F464646D6464D00C0B50E03C90FAC
:1017B0008A462C491F035C008046360B6D0D91460E
:1017C0003F0B640DDB0F8D421ED08C4216D0002DD6
:1017D0001ED130438446002C01D13A4323D06246C7
:1017E000002A1AD09A4529D05146022001390840D2
:1017F00001381CBC90469946A246F0BD3900114301
:10180000E5D002204042F4E73043FAD1AC420FD099
:10181000002C0FD13A43E7D00CE00122013B934367
:1018200018000130E5E763460020002BE1D0DBE73C
:101830003A43E6D19A45D7D1A542D5DCA54205DB8E
:10184000BE42D1D808D00020BE42D2D25046012399
:10185000013898430130CCE7C845C5D80020C845B9
:10186000F4D3C6E7FF070000F0B54F464646D6461C
:101870004D00C0B50E03C90F8A462E491F035C00F8
:101880008046360B6D0D91463F0B640DDB0F8D428C
:1018900018D08C4211D0002D18D130438446002C32
:1018A0001ED13A431CD163460020002B30D0514654
:1018B00002200139084001382AE039001143EAD0FA
:1018C000022025E03043FBD1AC4226D0002C26D1AB
:1018D0003A4324D15146022001390840013817E02B
:1018E0006246002A0FD09A45E1D1A54205DBBE42EF
:1018F000DDD819D00020BE420AD25046012301385B
:101900009843013004E00122013B93431800013069
:101910001CBC90469946A246F0BD3A43D0D19A45A8
:10192000C5D1A542C3DCE0E7C845C0D80020C84502
:10193000E3D3EDE7FF070000F8B557464E464546AE
:10194000DE460C000903E0B5490A460F5F0031434B
:101950001E03DB0F760A9B46530F3343C84E6500C8
:10196000C000E40FD2006D0DA24681467F0D9C465B
:101970009046B74200D1B9E05B46012673409B46D2
:10198000EE1BA34500D183E0002E63DD002F00D0C5
:10199000B1E06346134300D123E1731E002B00D056
:1019A000BAE1861A6346B04280410125C91A404215
:1019B000091A0B0200D447E149024B0A98464346F4
:1019C000002B00D189E1404600F06EFB0300083B8C
:1019D0001F2B00DD7CE120223000D21A4146D0408E
:1019E000994002009E400A439D4200DD6AE15D1B72
:1019F0006B1C1F2B00DD94E1202110003500C91A5B
:101A00008E40DA408840DD40711E8E411100072271
:101A10002843002506433240002A09D00F233340D3
:101A2000042B05D0331DB342B641764289191E00FE
:101A30000B0200D43DE26A1C914B55056D0D9A4294
:101A400000D119E18F4AF6080A405707520237437E
:101A5000120B9BE0002E00D0C5E06E1C7605760DC3
:101A6000012E00DC48E16746861ACB1BB042BF411D
:101A70007F42B8461F004346FF1A3B00B8461B0290
:101A800000D55FE137439AD100220024002579E098
:101A9000002E00DCFAE0002F00D18DE0784B9D4253
:101AA00067D0802367461B041F43BC46382E00DCEA
:101AB00052E1634613435A1E93411E1886428041E9
:101AC000404209180B0200D4BEE06D4B01359D4227
:101AD00000D1D2E06B4A73080A4001210E401E4338
:101AE0005108D30707221E43324095E71E001643D4
:101AF00000D045E740E7624B9D423AD080236746DD
:101B00001B041F43BC46382E00DDEBE01F2E00DC1B
:101B10003AE133006746203BDF403B00202E05D0F2
:101B20004027BF1B6646BE40324390464646721E63
:101B300096413343DAE0002B00D114E263461343AD
:101B400000D168E180234E07C008C9081B03064383
:101B5000194208D06046C008184204D1634601000B
:101B6000D2085E071643F3009946C900720F444D30
:101B700011434B46DE08424B4F073743CA089D428C
:101B800000D16EE012036D05120B6D0D00211203E2
:101B9000130B0A0D12051A433B4B2D0513402B4323
:101BA0005B00E4075B082343380019003CBC904607
:101BB0009946A246AB46F8BD6346134311D0731E47
:101BC000002B00D007E186188642804161444042E4
:101BD000091801250B0237D502257BE73E00614637
:101BE00091463500C5E75C46002D00D0E1E00B00D2
:101BF0000343F3D0731C00D1ACE1214B9F4200D1D1
:101C00003AE1F343382B00DD6FE11F2B00DD8CE15F
:101C100020250E00ED1AAE40B0460600AA46DE4072
:101C2000454635432E005546D940A8406346451EDB
:101C3000A8415B1A9C463043161AB2429241634651
:101C40005242991A3D00B4E607223240002A00D0E1
:101C5000E4E60B4BF6084F073743CA089D4200D015
:101C600090E73B00134300D1A6E180231B031A43F6
:101C70001203120B024D89E715000022002785E7A9
:101C8000FF070000FFFF7FFFFFFF0F80002E00D047
:101C9000C7E06B1C5E05760D012E00DCF0E0C84D40
:101CA000AB4200D1B9E085180A00854289416244FF
:101CB000494251180722CE076D082E434908324089
:101CC0001D00A9E6BF49ED1A114007223240A3E6E4
:101CD000320028388240002686E6300000F0E4F921
:101CE000203073E6634613435A1E9341C61AB0422E
:101CF00080414042091A5CE60E00674606431743DE
:101D0000002D5ED1002E00D0F3E0002F00D11EE1A7
:101D10005C46614691462CE7A94FBE427BD01E002F
:101D2000F1E610001F3DE840202B03D04021CB1AE4
:101D30009A401643731E9E410722064332400021FB
:101D4000002583E7161A6346B2428041591A404281
:101D50000B1A98465C4632E61F2E00DDABE02027CA
:101D6000BB1B9A4663465746BB40994613004F46F5
:101D7000F3401F433B005746BA40571EBA41134336
:101D80006246F240891898E62027BB1B9A466346B4
:101D90005746BB40994613004F46F3401F433B0054
:101DA0005746BA40571EBA4113436246F240891A59
:101DB0009CE7834B9F425FD080252D0473422943CB
:101DC00020E7002E0CD1002F00D1D0E05C46614608
:101DD00091467B4DCDE67A4FBE421CD01E0065E693
:101DE000002F18D0C0084E0706438020C908000302
:101DF000014208D06346DC08044204D12100DA46DF
:101E0000D2085E071643F300994601245346C900E1
:101E1000720F11431C406A4DABE61D0000220027E3
:101E2000B4E6002D59D10B00034300D1D6E6731C54
:101E300000D1B2E0624B9F421ED0F343382B6FDCDF
:101E40001F2B00DD97E020250E00ED1AAE40B046B6
:101E50000600AA46DE40454635432E005546A840BA
:101E6000D940451EA8418C440643B618964292417B
:101E7000514261443D0025E63D006146914678E6C9
:101E80000B000343002D00D055E6002BF5D0634630
:101E9000134300D16DE6861886428041614440427A
:101EA000091800220B0200D4D0E6464B0135194038
:101EB000B2E5B1465DE633006746203BDF403B00BC
:101EC000202E05D04027BF1B6646BE4032439046B9
:101ED0004646721E96413343EFE5394B9F42CBD0C5
:101EE00080252D0473422943A8E70843411E8841F9
:101EF000A2E6002F00D13CE66346861ACF1AB04214
:101F00009B415B42FB1A98461B024ED5161A63464C
:101F1000B2429241591A5242891A5C4600227BE52C
:101F200001430E00711E8E419FE71D000E00203DF3
:101F3000EE40B046202B04D04025EB1A99400843D0
:101F4000814648464346411E8841184374E60022B4
:101F5000002417E6161A6346B2429241591A5242B9
:101F6000891A3D0025E561469146154D01E680221E
:101F70000024120379E61D000E00203DEE40B0461D
:101F8000202B04D04025EB1A9940084381464E4649
:101F90004346711E8E411E4367E7861896429B4159
:101FA00061445B42C9183D008CE547463743CED0BB
:101FB00007224146324049E600273A00E6E5C0469E
:101FC000FF070000FFFF7FFF30B5144D0A034B00F1
:101FD000120B5B0DC90F0024AB4211DD104CA34264
:101FE00010DC8024640322430E4CE41A1F2C0CDD09
:101FF0000D48C31ADA4013005C42002900D11C00CE
:10200000200030BD094BCC18FAE7094DE040AC4642
:1020100063449A4013000343EEE7C046FE0300000A
:102020001D0400003304000013040000FFFFFF7FC5
:10203000EDFBFFFF70B500282DD0C317C5185D401C
:10204000C40F280000F030F8154B1B1A5B055B0D20
:102050000A2815DD0B38854000222D032D0B0021A9
:1020600010002D030A0D2D0B12052A430D4D1B05E3
:102070002A4013435B00E4075B082343190070BD4B
:1020800002002900153291400A000B21081AC540B0
:102090002D032D0BE3E70024002300250022DEE7BB
:1020A0001E040000FFFF0F801C2101231B04984227
:1020B00001D3000C10391B0A984201D3000A0839D9
:1020C0001B09984201D30009043902A2105C401890
:1020D0007047C04604030202010101010000000034
:1020E0000000000010B5002903D1FFF7DDFF20300C
:1020F00002E0081CFFF7D8FF10BDC046C81300104F
:102100003A1200107E120010E21100107E12001030
:102110006E1300107E120010E21100103A1200102F
:102120003A1200106E130010E2110010DA110010C4
:10213000DA110010DA1100107C130010F0B5050060
:102140000C00002A12D006000E43F3070FD501271A
:1021500005E00E001E430C001D00374208D0611C34
:102160002478013A6B1C2C70002AF2D1F0BD0300D8
:10217000012A34D9B4072FD502275B1A5D188C1CAD
:102180000988023A2980AE1C2100012A2BD925009A
:1021900035432F42F2D1032A10D92100171FBF085F
:1021A000231DBF00FF18331B5D180C1D09682E1D71
:1021B00029602100A742F7D103231A40531E002AA9
:1021C000D4D022783270002BD0D062787270012B7C
:1021D000CCD0A378B370C9E70C001E00DBE7012266
:1021E0000C001E00EAE73300FAE7C046F0B5574698
:1021F0004E46DE4645468A46E0B50400CEB2002A89
:102200000BD083070FD0032502E01C001D420BD02A
:10221000013A631C2670002AF7D13CBC90469946CF
:10222000A246AB46F0BD0300032A30D95146FF2534
:102230000D40A9460D06494629438B4651460904DF
:102240008A46FF21A846554609040D4029005D46EF
:102250000D434146141FA408A700A446090C1C1DE9
:102260003F190D4300E004341D6021002300A74204
:10227000F9D16346541F9B00E41A9307CDD00E702A
:10228000002CCAD04E70012CC7D08E70C5E7541EEA
:102290001900F4E70300002030B5013A08D31D7897
:1022A0000C78A54205D0002803D1281B013AF6D2AC
:1022B00030BD01330131F0E7F0B5C646040000B58A
:1022C000884681421FD210188E1805003300002A5C
:1022D00015D037000743F90718D501239C4607E0BE
:1022E0001F0060462F43384210D0434610199E18F5
:1022F000731E451E1878013A2870002AF0D120007C
:1023000004BC9046F0BDFFF719FFF8E7012A39D960
:10231000B90735D50227981AAD1A8318023BA918B8
:102320001E880239023A0E80012A30D91E000E435F
:102330003742F2D1032A27D9151FAD08181FAD0067
:10234000451BCE1A181FF318191F03680B600300F2
:102350008542F7D103231A40551E002ACFD0431ED1
:102360001A784B1E1A70002DC9D0831E1A788B1E46
:102370001A70012DC3D00338037803390B70BEE700
:102380002900D7E701222900551E1800E5E70D00B6
:10239000F9E7C04604DF704730B595B00C000390F4
:1023A000242200210BA8FFF721FF0AAA0692282267
:1023B000079203AA02230892042201218020049498
:1023C0000A930992059300F0BFFC041E0FDD012360
:1023D000019304AB009306AA0223002100F0B6FC8F
:1023E0000500200000F0BEFC280015B030BD84259B
:1023F0006D42F9E730B58FB005002422002105A811
:10240000FFF7F4FE032304AC04930121253380205D
:10241000E5800294039300F097FC041E0EDD002378
:1024200002AA019300930021013300F08FFC050004
:10243000200000F097FC28000FB030BD84256D42CD
:10244000F9E7C04630B58FB005002422002105A869
:10245000FFF7CCFE052304AC049301212333802035
:10246000E5800294039300F06FFC041E0EDD002350
:1024700002AA019300930021013300F067FC0500DC
:10248000200000F06FFC28000FB030BD84256D42A5
:10249000F9E7C04670B590B006AC06000D002822E2
:1024A00000212000FFF7A2FE2823012103938020B2
:1024B000103BE68002940495059300F045FC041E51
:1024C0000FDD0123019304AB009302AA0123002135
:1024D00000F03CFC0500200000F044FC280010B097
:1024E00070BD84256D42F9E7F0B5C64600B590B0E1
:1024F00007000E0015000021242207A89846FFF7C8
:1025000075FE072306AC0693012121338020E78066
:10251000029403930496059500F016FC041E14DD46
:102520000123019304AB009302AA0123002100F0D0
:102530000DFC4346059A05001A60200000F012FCCD
:10254000280010B004BC9046F0BD84256D42F7E72A
:1025500070B590B005000E002422002107A8FFF7F7
:1025600045FE0B2306932B6806ACE360282301216C
:1025700003938020243BA66002940495059300F009
:10258000E3FB041E0FDD0123019304AB009302AAB9
:102590000123002100F0DAFB0500200000F0E2FB3F
:1025A000280010B070BD84256D42F9E7F0B593B0F6
:1025B00004000F0016000021242209A8FFF716FED0
:1025C0000C230893236808ADEB60282301210593B1
:1025D0008020243B0294049506970796039300F00D
:1025E000B3FB041E0FDD0123019302AB009304AA89
:1025F0000223002100F0AAFB0500200000F0B2FB3E
:10260000280013B0F0BD84256D42F9E7F0B5C64649
:1026100000B592B004000F0016000021242209A882
:102620009846FFF7E3FD0D230893236808ADEB60A0
:102630002823012103938020243B049402950593D1
:102640000697079600F080FB041E14DD0223019319
:1026500004AB009302AA0123002100F077FB43465C
:10266000079A05001A60200000F07CFB280012B0D9
:1026700004BC9046F0BD84256D42F7E7F0B5CE4628
:1026800000B594B081460C001700002120220BA851
:102690001E00FFF7ABFD22230A934B460AADEB80E9
:1026A0001A9BAC606E62002B58D0282305931C9BAC
:1026B000049506931D9B07931A9B08931B9B0993F4
:1026C0001E9B02931F9B0393102E4AD8002F27D0E6
:1026D000002E25D0BB0747D1082E45D93A68B3084C
:1026E0000F927A681092022B05D0BA681192042BCF
:1026F00001D1FB681293032332009A4313009642E0
:102700000ED0F95CAA1811755A1C964208D9A9185E
:10271000BA5C02330A759E4202D9ED18FB5C2B7538
:102720000121802000F010FB051E60DD1A9B0122B4
:102730005C1EA341019202AA02330092002104AA66
:1027400000F004FB039A209B04001A60280000F0AC
:1027500009FB200014B004BC9146F0BD1B9B002B6C
:10276000A3D087246442F4E73B782B75012ED7D0A1
:102770007B786B75022ED3D0BB78AB75032ECFD090
:10278000FB78EB75042ECBD03B792B76052EC7D08A
:102790007B796B76062EC3D0BB79AB76072EBFD084
:1027A000FB79EB76082EBBD93B7A2B77092EB7D96C
:1027B0007B7A6B770A2EB3D0BB7AAB770B2EAFD078
:1027C000FB7AEB770C2EABD020233A7BEA540D2E0C
:1027D000A6D07A7B0133EA540E2EA1D0BA7B013306
:1027E000EA54102E9CD1FA7B0133EA5498E78424F2
:1027F0006442AEE7F0B5CE4600B594B081460C0019
:102800001700002120220BA81E00FFF7EFFC232356
:102810000A934B460AADEB801A9BAC606E62002BAC
:1028200058D0282305931C9B049506931D9B079362
:102830001A9B08931B9B09931E9B02931F9B039358
:10284000102E4AD8002F27D0002E25D0BB0747D105
:10285000082E45D93A68B3080F927A681092022B75
:1028600005D0BA681192042B01D1FB68129303239F
:1028700032009A43130096420ED0F95CAA181175E3
:102880005A1C964208D9A918BA5C02330A759E42AE
:1028900002D9ED18FB5C2B750121802000F054FA61
:1028A000051E60DD1A9B01225C1EA341019202AA53
:1028B00002330092002104AA00F048FA039A209BF8
:1028C00004001A60280000F04DFA200014B004BC87
:1028D0009146F0BD1B9B002BA3D087246442F4E7F4
:1028E0003B782B75012ED7D07B786B75022ED3D019
:1028F000BB78AB75032ECFD0FB78EB75042ECBD015
:102900003B792B76052EC7D07B796B76062EC3D00C
:10291000BB79AB76072EBFD0FB79EB76082EBBD9FF
:102920003B7A2B77092EB7D97B7A6B770A2EB3D0F7
:10293000BB7AAB770B2EAFD0FB7AEB770C2EABD0FC
:1029400020233A7BEA540D2EA6D07A7B0133EA5439
:102950000E2EA1D0BA7B0133EA54102E9CD1FA7B03
:102960000133EA5498E784246442AEE7F0B5C646E2
:1029700000B592B080460F0016000021242209A85D
:102980001D00FFF733FC2E230893434608ACE38079
:1029900028230593189B01210293199B8020A7608F
:1029A000049406960795039300F0CEF9041E14DDF7
:1029B0000123019302AB009304AA0223002100F03B
:1029C000C5F9039A1A9B05001A60200000F0CAF9A5
:1029D000280012B004BC9046F0BD84256D42F7E794
:1029E00030B591B004002422002107A8FFF7FEFBB8
:1029F0003A230693236806ADEB6028230121039355
:102A00008020243B04940295059300F09DF9041E58
:102A10000FDD0123019304AB009302AA01230021DF
:102A200000F094F90500200000F09CF9280011B096
:102A300030BD84256D42F9E770B590B005000E00F9
:102A40002422002107A8FFF7D1FB322306932B682D
:102A500006ACE3602823012103938020243BA66079
:102A600002940495059300F06FF9041E0FDD012315
:102A7000019304AB009302AA0123002100F066F940
:102A80000500200000F06EF9280010B070BD84250C
:102A90006D42F9E7F0B5C64607001E2000B590B0BC
:102AA000884616000021222268441D00FFF79EFB85
:102AB00035230693434606ACA3803B680121E360BF
:102AC00028238020029403930496059500F03CF996
:102AD000041E10DD002302AA01930093002102339B
:102AE00000F034F90500200000F03CF9280010B097
:102AF00004BC9046F0BD84256D42F7E7F0B593B075
:102B000006000F0015000021242209A8FFF76EFB24
:102B1000392308933B6808ACE36028230593103BF6
:102B200007930121163B8020049406960295039397
:102B300000F00AF9041E0FDD0123019302AB00939C
:102B400004AA0223002100F001F90500200000F092
:102B500009F9280013B0F0BD84256D42F9E7C0469D
:102B600030B58BB00290039102A90491069308211D
:102B70000EAB08930423059170200739079209933F
:102B800000F0E2F8041E10DD002304AA0193009374
:102B90000021033300F0DAF80500200000F0E2F82D
:102BA000032D05D028000BB030BD84256D42F9E718
:102BB00087256D42F6E7C04670B58CB0039204AA33
:102BC00008920822099203AA0A920422119E0B92EB
:102BD000109A0490059106920793002E19D00121B6
:102BE000712000F0B1F8041E16DD0123019306AB3D
:102BF000009308AA0223002100F0A8F80500200095
:102C000000F0B0F8032D04D0079B336028000CB00F
:102C100070BD87256D42F9E784256D42F6E7C04611
:102C200030B589B002AB0493082302900391059359
:102C30000121043372200692079300F085F8041EE8
:102C400011DD0123019306AB009304AA01230021A7
:102C500000F07CF80500200000F084F8032D05D07A
:102C6000280009B030BD84256D42F9E787256D4203
:102C7000F6E7C04630B587B002AB04930823029054
:102C8000039101217320059300F05EF8041E0EDD10
:102C9000002304AA019300930021013300F056F8A9
:102CA0000500200000F05EF8280007B030BD842544
:102CB0006D42F9E730B587B003AB0493042303906A
:102CC00001214220059300F03FF8051E0FDD00238F
:102CD00004AA019300930749013300F037F8040078
:102CE000280000F03FF8002C01DB200000E001206C
:102CF00007B030BDF303000030B589B003AB0493D7
:102D0000042303900791422001210593069200F0CD
:102D10001BF8051E10DD0123019306AB009304AAE6
:102D20000123074900F012F80400280000F01AF807
:102D3000002C01DB200000E0012009B030BDC046BE
:102D4000F20300000FDF70470EDF704700B585B05B
:102D50000293079B0191039301A9069BFFF7F2FFE2
:102D600005B000BD10DF704709DF704711DF704705
:102D700013DF704715DF704716DF704719DF7047A4
:102D80000FB4F0B55746DE464E464546E0B595B021
:102D90001EAE08CE00249A46002357469B4607964F
:102DA0000B933B78002B12D07A1C9046252B20D019
:102DB0000BAD621C2C190B9223711F2A24D80123FE
:102DC00047469C463B78E3441400002BECD1002C92
:102DD00004D021000CA807F063F98344584615B0CD
:102DE0003CBC90469946A246AB46F0BC08BC04B039
:102DF00018477B78253BDBB2532B01D900F09EFCB2
:102E0000854A9B00D3589F46002320210CA80B9392
:102E100007F046F90B9AD2E70023804A0BAD98469B
:102E200091462A004546B04616003033621C3419DC
:102E3000326023711F2A0BD84B4601355B5D002B96
:102E400012D01400621C3419326023711F2AF3D986
:102E5000002320210CA8336007F022F94B460135EE
:102E60005B5D3268002BECD133004646A8461D005E
:102E7000331D019308AB924600210C2218003468E0
:102E80009946FFF7B3F90F231A00494664482240D8
:102E9000825CC3440A70039252469846210901326B
:102EA000002901D100F0D7FD4E461940415C7170F8
:102EB000260A01D100F010FE1E404B46865D9E7032
:102EC000230B01D100F031FE1900434619404B4657
:102ED000415CD970230C01D100F04BFE1E0043462B
:102EE0001E404B46865D1E71230D01D100F04AFE47
:102EF0001900434619404B46415C5971230E01D1DC
:102F000000F076FE46461E404B46865D240F9E71BD
:102F100001D100F090FE015DD971062302930233C6
:102F200098465346EB182A6019711F2A01D900F000
:102F30006BFD541CAA182C6016711F2C01D900F0CF
:102F4000A6FC029B002B01D100F05CFC4346DE1E78
:102F50004B469A5D631C2C192B6022711F2B01D9E3
:102F600000F014FD002E01D100F078FC4246161F3F
:102F70004A46925D5C1CEB182C601A711F2C01D91B
:102F800000F02FFD002E01D100F092FC43465E1FA1
:102F90004B469A5D631C2C192B6022711F2B01D9A3
:102FA00000F071FD002E01D100F00AFD4246961F8F
:102FB0004A46925D5C1CEB182C601A711F2C06D9D6
:102FC000002320210CA82B6007F06AF82C68002E43
:102FD00001D100F017FD46464B46073E9A5D631C43
:102FE0002C192B6022711F2B01D900F077FC002EC9
:102FF00001D100F05AFD039A5C1CEB182C601A7189
:1030000008261F2C00D80FE2002320210CA82B60DB
:1030100007F046F82C6807E2C43C0010343E00106C
:10302000143E0010331D029308AB180036680C22C2
:1030300000219946FFF7DAF8631C9A46002E00DA61
:10304000A6E30023B046012603930BAD0A214046B8
:10305000FDF7FAFE4A463031CBB213700A214046E2
:103060000593FDF76BFE002801D100F0E9FC0A2171
:10307000FDF7EAFE4B463031CEB25E706421404629
:10308000FDF75CFE002801D100F017FD0A21FDF7D5
:10309000DBFE3031CBB24A46FA21937089004046BC
:1030A0000193FDF74BFE002801D100F02DFD0A2110
:1030B000FDF7CAFE4B463031CEB2DE70E4494046E1
:1030C000FDF73CFE002801D100F049FD0A21FDF783
:1030D000BBFE4A463031CBB21371DE494046019304
:1030E000FDF72CFE002801D100F055FD0A21FDF767
:1030F000ABFE4B463031CEB25E71D7494046FDF74C
:103100001DFE002801D100F05BFD0A21FDF79CFEA9
:103110004A463031CBB29371D04940460193FDF716
:103120000DFE002801D100F075FD0A21FDF78CFE8F
:103130004B463031CEB2DE71C9494046FDF7FEFD47
:10314000002801D100F091FD0A21FDF77DFE4A46DD
:103150003031CBB21372C34940460193FDF7EEFD07
:10316000002801D100F0A0FD4B463030C6B25E729F
:10317000082304930233984653462C192B6026717A
:103180001F2B01D900F052FC5346019A5C1CEB182E
:103190002C601A711F2C00D971E3049B002B01D104
:1031A00000F0CCFC4346DE1E4B469A5D631C2C1996
:1031B0002B6022711F2B00D9F1E3002E01D100F00A
:1031C000C9FC4246161F4A46925D5C1CEB182C60F7
:1031D0001A711F2C01D900F0FBFB002E01D100F069
:1031E000E3FC43465E1F4B469A5D631C2C192B6023
:1031F00022711F2B01D900F04FFC002E01D100F0ED
:10320000FDFC4246961F4A46925D5C1CEB182C6002
:103210001A711F2C06D9002320210CA82B6006F060
:103220003FFF2C68002E01D100F0EDFC4346DE1F6D
:103230004B469A5D631C2C192B6022711F2B00D901
:1032400055E3002E01D100F016FD46464A46083EE1
:10325000925D5C1CEB182C601A711F2C00D966E380
:10326000002E01D100F029FD46464B46093E9A5DED
:10327000631C2C192B6022711F2B00D95FE3002ED9
:1032800000D16CE3059A5C1CEB182C601A711F2CA2
:1032900001D900F09BFC039E0A36B3440237029E1C
:1032A0007FE5331D32780BAD9846631C2C190B93C8
:1032B00022711F2B00D97DE2012294461C00E344B9
:1032C000464602376DE5331D019308AB00210C2201
:1032D000180035689946FEF789FF63490F231A00E5
:1032E0002A408A5C984692464A4650461070280901
:1032F000621C002800D19FE24E461840085C7070A6
:103300002E0A00D1ADE21E404B468E5D9E702B0B07
:1033100000D12BE31800434618404B46085CD87098
:103320002B0C00D14FE31E0043461E404B468E5DE2
:103330001E712B0D00D1BDE21800434618404B46CC
:10334000085C58712B0E00D1B2E346461E404B4636
:103350008E5D2D0F9E7100D1CEE3485DD87106239E
:103360000293023398460BAD2C190B9220711F2A41
:1033700000D959E2541CAA182C6016711F2C00D9D0
:1033800028E2029B002B00D13CE24346DE1E4B4666
:103390009A5D631C2C192B6022711F2B00D921E22E
:1033A000002E00D15AE24246161F4A46925D5C1C2E
:1033B000EB182C601A711F2C00D91BE2002E00D1D3
:1033C00076E243465E1F4B469A5D631C2C192B60C8
:1033D00022711F2B00D939E2002E00D1F0E24246C3
:1033E000961F4A46925D5C1CEB182C601A711F2CCC
:1033F00000D93CE2002E00D104E346464B46073E8E
:103400009A5D631C2C192B6022711F2B00D9B5E229
:10341000002E00D149E352465C1CEB182C601A7157
:1034200008261F2C00D9EFE5B3440237019EB8E40B
:1034300025220BAD631C2C190B9322711F2B00D975
:10344000C0E1012294461C00E3440237A9E4C046CF
:1034500010270000A086010040420F0080969800CF
:1034600000E1F50500CA9A3B243E0010331D01938C
:1034700008AB00210C22180035689946FEF7B6FE0D
:10348000E1492BE7331D029308AB994635680C22BE
:1034900018000021FEF7AAFE0A212800FDF7D4FC3F
:1034A0004A463031CBB213700A2128000493FDF74D
:1034B00045FC631C9A46002800D103E20A21FDF76F
:1034C000C3FC4B463031CEB25E7064212800FDF75C
:1034D00035FC002800D1F8E20A21FDF7B5FC3031B7
:1034E000CBB29846FA214B46424689009A70280092
:1034F000FDF724FC002800D10FE30A21FDF7A4FC0E
:103500004B463031CEB2DE70C0492800FDF716FCC4
:10351000002800D119E30A21FDF796FC3031CBB227
:1035200098464B464246BA491A712800FDF706FCF8
:10353000002800D13CE30A21FDF786FC4B463031E0
:10354000CEB25E71B3492800FDF7F8FB002800D128
:1035500049E30A21FDF778FC3031CBB298464B465F
:103560004246AD499A712800FDF7E8FB002800D1DA
:1035700059E30A21FDF768FC4B463031CEB2DE71CB
:10358000A6492800FDF7DAFB002800D178E30A21DC
:10359000FDF75AFC3031CBB298464B464246A04923
:1035A0001A722800FDF7CAFB002800D171E34B46D0
:1035B0003030C6B25E720823039302330193534640
:1035C0000BAD2C190B9326711F2B00D925E2534606
:1035D00042465C1CEB182C601A711F2C00D95FE16D
:1035E000039B002B00D1ADE2019BDE1E4B469A5D92
:1035F000631C2C192B6022711F2B00D9D8E1002EDF
:1036000000D1B2E2019A5C1C161F4A46925DEB188B
:103610002C601A711F2C00D9ECE1002E00D1AEE213
:10362000019B5E1F4B469A5D631C2C192B60227117
:103630001F2B00D91FE2002E00D1D0E2019A5C1CA2
:10364000961F4A46925DEB182C601A711F2C06D902
:10365000002320210CA82B6006F022FD2C68002EF0
:1036600000D1D4E2019BDE1F4B469A5D631C2C19EE
:103670002B6022711F2B00D941E1002E00D104E301
:103680004A46019E5C1C083E925DEB182C601A7144
:103690001F2C00D943E1002E00D102E34B46019ECE
:1036A000093E9A5D631C2C192B6022711F2B00D9D7
:1036B0004DE1002E00D156E1049A5C1CEB182C6001
:1036C0001A710A261F2C00D8E7E5002320210CA838
:1036D0002B6006F0E5FC2C68DFE5331D9946336866
:1036E0001A789846002A25D000239A463B000BAD55
:1036F00047469846631C2C1900262B6022711F2B0D
:103700000AD80136BA5D002A11D01C00631C2C199E
:103710002B6022711F2BF4D9534620210CA80136AF
:103720002B6006F0BDFCBA5D2B68002AEDD1474640
:103730001C00B3444E460237FFF733FB394B5B2284
:10374000994600230BAD9A46631C2C1900272B6069
:1037500022711F2B0BD84A460137D25D002A12D0A6
:103760001C00631C2C192B6022711F2BF3D95346AC
:1037700020210CA82B6006F093FC4A460137D25D4D
:103780002B68002AECD1BB441C004746FFF709FB1D
:103790000B932D230BAD2C19237153461F2B00D9EE
:1037A000A1E17342984601239C4654460226E24416
:1037B00003934BE4002320210CA80B9306F070FC2C
:1037C0000B9B79E5002320210CA80B9306F068FCE5
:1037D0000B9B36E6002320210CA82B6006F060FC32
:1037E0002C68CEE5002320210CA82B6006F058FCA5
:1037F0002B68D5E5002320210CA82B6006F050FC97
:103800002C68DBE502260FE6143E001010270000AE
:10381000A086010040420F008096980000E1F50567
:1038200000CA9A3B383E0010002320210CA80B93BD
:1038300006F036FC0B9A9DE553460BAD2C190B9206
:1038400023711F2A63D814000126EDE500232021EF
:103850000CA82B6006F024FC2B68BDE51C00032699
:10386000E2E5002302930233564698467BE50023A7
:1038700020210CA82B6006F013FC2C68BAE500236D
:1038800020210CA82B6006F00BFC2C6885E400239B
:1038900020210CA82B6006F003FC2C68FFF751FBDD
:1038A000002320210CA82B6006F0FAFB2C6897E679
:1038B0000426B9E5030030001E00032302930233FF
:1038C000984650E50BAD0B93049B2C19237153467E
:1038D0001F2B00D9C0E154460126DEE4002320213D
:1038E0000CA82B6006F0DCFB2B68FFF780FB0023A5
:1038F00020210CA82B6006F0D3FB2B68A1E4002349
:1039000020210CA82B6006F0CBFB2B68B5E60B90B2
:1039100020210CA806F0C4FB01260B9C84E50023A3
:1039200020210CA82B6006F0BBFB2C68B3E600231B
:1039300020210CA82B6006F0B3FB2C6890E4002338
:1039400020210CA82B6006F0ABFB2B6897E400232A
:1039500020210CA82B6006F0A3FB2B68A9E6039E90
:103960001C00093699E41C00092696E40300300087
:103970001E000123029302339846F4E40023202121
:103980000CA82B6006F08CFB2B6841E5002320215E
:103990000CA82B6006F084FB2B68FFF7E3FA0023EA
:1039A00020210CA82B6006F07BFB2B68FFF705FCA1
:1039B000002320210CA82B6006F072FB2B681EE66A
:1039C0001C00052630E50223029302339846CAE420
:1039D000002320210CA82B6006F062FB2C68FFF767
:1039E000FCFB002320210CA82B6006F059FB2C685F
:1039F000FFF7C8FA002320210CA82B6006F050FB2B
:103A00002C680AE606260FE5002320210CA82B606F
:103A100006F046FB2A68FFF78CFA002320210CA849
:103A20000B9306F03DFB0B9B9A46D0E5002320212B
:103A30000CA82B6006F034FB2B689A46FFF7A4FB1A
:103A400053462B60059B2C19237153461F2B00D91D
:103A5000FAE0544621E453460398EB182A601871A3
:103A60001F2A00D8EFE629600CA8202106F018FBD9
:103A700001262C68D8E4002320210CA82B6006F036
:103A80000FFB2B68D7E5002320210CA82B6006F044
:103A900007FB2B68FFF786FA002320210CA82B6078
:103AA00006F0FEFA2B68FFF7A8FB1C000726BBE414
:103AB000042302930233984655E4059B01930023A7
:103AC000049302339846FFF757FB049B9846002364
:103AD00003930233019372E5002302930233039EA2
:103AE0009846FFF71EFA002320210CA80B9306F03E
:103AF000D7FA0B9B9A4654E6030030001E000523BC
:103B00000293023398462EE43300019E0193012371
:103B1000049302339846FFF72FFB3300464698463E
:103B2000012303930233019349E50B0031001E008A
:103B30000123029302339846FFF7F3F9039E0236FE
:103B4000FFF7ABFB0226FFF7A8FB02230393023328
:103B5000019334E5039E1C000336FFF79EFB02230E
:103B6000049302339846FFF707FB1C000326FFF778
:103B700094FB0223029302339846FFF7D2F90426FE
:103B8000FFF78BFB0B0031001E000323029302336F
:103B90009846FFF7C6F93300019E0193032304936F
:103BA00002339846FFF7E8FA039E0436FFF775FBE9
:103BB0003300464698460323039302330193FEE401
:103BC0000423049302339846FFF7D6FA00232021FA
:103BD0000CA82B6006F064FA2C68FFF75CFB1C0055
:103BE0000526FFF75AFB0423039302330193E6E40F
:103BF0000423029302339846FFF793F9039E1C00B7
:103C00000536FFF74AFB039E0636FFF746FB0626FE
:103C1000FFF743FB3300019E019305230493023316
:103C20009846FFF7A9FA33004646984605230393C2
:103C300002330193C3E40B0031001E0005230293FD
:103C400002339846FFF76DF9286020210CA806F092
:103C500027FA2C68FFF721FB0B9020210CA806F017
:103C60001FFA01260B9CFFF718FB0623049302336F
:103C70009846FFF781FA039E1C000736FFF70DFBFD
:103C8000062303930233019399E41C000726FFF7F0
:103C900004FB3300464698460723039302330193FF
:103CA0008DE40826FFF7F9FA3300019E01930723FC
:103CB000049302339846FFF75FFA039E0836FFF736
:103CC000ECFAC046303400103C3700103C3700108E
:103CD0003C3700103C3700103C3700103C370010D8
:103CE0003C3700103C3700103C3700103C370010C8
:103CF0003C3700103C3700103C3700103C370010B8
:103D00003C3700103C3700103C3700103C370010A7
:103D10003C3700103C3700103C3700103C37001097
:103D20003C3700103C3700103C3700103C37001087
:103D30003C3700103C3700103C3700103C37001077
:103D40003C3700103C3700103C3700103C37001067
:103D50003C3700103C3700103C3700103C37001057
:103D60003C3700103C3700103C3700103C37001047
:103D70003C3700103C3700103C3700103C37001037
:103D80003C3700103C3700103C3700103C37001027
:103D9000C63200103C3700103C3700103C37001092
:103DA0003C3700103C3700103C3700103C37001007
:103DB0003C3700103C3700103C370010A232001096
:103DC000243000103C3700103C3700103C37001006
:103DD0003C370010243000103C3700103C370010F6
:103DE0003C3700103C3700103C3700103C370010C7
:103DF000182E00103C3700103C370010DA36001047
:103E00003C370010843400103C3700103C37001061
:103E10006C34001030313233343536373839616222
:103E20006364656630313233343536373839414270
:103E300043444546307800005B556E737570706F73
:103E400072746564205461675D000000000000002A
:103E50000000000000000000000000000000000062
:103E6000F0B5CE46474680B58DB000F00DF900287C
:103E700025D106AB81279846734C08AE7F4280213E
:103E8000012009064042FEF76FFF0300C20676D408
:103E9000820645D4420614D4020600D59BE0802059
:103EA000400003420CD02100FEF760FF2568AB1CE8
:103EB00000DAC5E0002D00DBB1E00021A6E0FEE75E
:103EC000FEE721004020FEF751FF21688B1C00DA3D
:103ED000A4E00029F1DB00D0A0E023696068082B92
:103EE00000D0AFE0226A0C2A00D0ABE04246FEF7D9
:103EF0003FFF2369984200D0A4E0069A079B0096F2
:103F0000A06800F02BF9051E05D1236A32000021BC
:103F10006068FEF72FFF29006068FEF72DFFAEE70F
:103F200021002020FEF722FF21688B1C00DA88E0A8
:103F30000029C2DB00D084E023696068082B69D1C6
:103F40006269042A66D13200FEF712FF23699842A3
:103F500060D1636905AA01216068FEF709FF636902
:103F6000984257D143460293236A0193059B0093DD
:103F7000A068089A099B00F0C5F8010046E02100FE
:103F80001020FEF7F3FE21688B1C46DB002994DB32
:103F900043D12369A5686068082B3BD1A269042A34
:103FA00038D13200FEF7E4FE2369984232D1A3698A
:103FB000424602216068FEF7DBFEA369984229D1E0
:103FC000069B2800019363690093089A099B00F0FF
:103FD00069F801001AE021008020FEF7C7FE216881
:103FE0008B1C19DB002900DA67E715D123696068AB
:103FF000082B0FD13200FEF7BBFE2369984209D18E
:10400000089A099BA06800F0CDF801006068FEF7EF
:10401000B3FE34E73900F9E7FEE7FEE7FEE7002DDF
:104020000ED1236A9946042BF4D100F0E1F829005F
:1040300008904B4632006068FEF79CFE2900E5E7D9
:10404000FEE7FEE73D0066E7009C0008074B10B561
:1040500002000C0058680B000121FEF789FE201AAF
:10406000441EA04180234042984310BD009C00089C
:1040700010B50B000349020048680021FEF77AFEE4
:1040800010BDC046009C000810B500F0B3F8002831
:1040900000D110BD00F0E8F90028FAD100F0AAF82C
:1040A000F7E7C04630B51D00130083B014002B4362
:1040B0001FD00723079A9A431ED10123104A5B425F
:1040C00012196B41002B09D0069B020000932000BF
:1040D000079B290000F0CEF803B030BDFF2AF3D8CB
:1040E000079B22000193069B00932B001BF042FDCF
:1040F000F2E787204042EFE786204042ECE7C046E7
:1041000000FFFFFF30B51D00130085B014002B43E6
:104110001FD00123104A5B4212196B41002B0BD0B8
:104120000A9B02000193099B200000932900089B31
:1041300000F06EF805B030BDFF2AF1D80A9B2200CE
:104140000293099B0193089B00932B001BF016FD23
:10415000F0E787204042EDE700FFFFFF30B51D008C
:10416000130083B014002B4317D001230C4A5B4289
:1041700012196B41002B07D00200069B200029007A
:1041800000F00CF903B030BDFF2AF5D8069B2200E1
:1041900000932B001BF020FDF4E787204042F1E75D
:1041A00000FFFFFF70B51D00130014002B4316D055
:1041B00001230E4A5B4212196B41002B08D002000A
:1041C0002900200000F012F9030095330AD070BDD9
:1041D000FF2AF4D822002B001BF01CFDF7E78720F4
:1041E0004042F4E784204042F1E7C04600FFFFFF71
:1041F0000020704710B5044C200000F011FA034B6A
:10420000283C5C6010BDC046609C0008309C0008E3
:10421000F8B5154D1E002B0000F064FB041E01D004
:104220002000F8BD114F2868390000F0F5FC041E8D
:1042300004D1FD69B54208D287246442802200215E
:1042400012013800FDF7D2FFEAE7069BAD1B9D4245
:1042500007D8074829003018FFF70AFF079B1D60A1
:10426000ECE71D00F5E7C046309C0008389C0008CC
:10427000609C0008F0B557464E46DE4645469A46D5
:10428000FB23E0B583B091460C9A06000F00DB00DB
:104290009A4269D83E4B4A46984600F023FB041EDA
:1042A00011D003003B4D8C334CD0802200211201F1
:1042B0002800FDF79BFF200003B03CBC90469946C8
:1042C000A246AB46F0BD4346324D1868290000F0C7
:1042D000A3FC041EE9D16B6ADB0742D453466B6230
:1042E0000C9B2B6243461B68019301239B462A4B80
:1042F0000C9918009A46FFF7A9FE041ED5D1282371
:104300005B429C46E24453460C9A41465846DA6169
:1043100000F04EFA041EC8D143465146186800F01A
:10432000BBFC041EC1D143464A463000390000F0B0
:1043300075FA041E25D1019B002B18D100F02AFB31
:104340000400B2E78022002112012800FDF74EFF91
:104350000C9B2B6253466B6202239B460023019306
:10436000C5E785246442A0E787246442A3E700F000
:1043700011FB041E99D101980021FEF77BFC04007B
:1043800093E7434600211868FEF774FC8DE7C046AA
:10439000309C0008389C0008609C0008F8B5114D5E
:1043A0001F002B0000F09EFA041E01D02000F8BD73
:1043B0000D4E2868310000F02FFC041E06D080222C
:1043C000002112013000FDF711FFEFE78022F369B1
:1043D00012017B60736A0021BB603000FDF706FFAD
:1043E000E4E7C046309C0008389C0008F8B5474612
:1043F000CE461B4D80B52B0006000F00904600F006
:1044000071FA041E04D020000CBC90469946F8BDF9
:10441000144B28681900994600F0FEFB041E05D1D4
:104420004B465B6ADB0708D5852464428022002165
:1044300012014846FDF7DAFEE5E742463000390052
:1044400000F074FA041EF1D12D6800F0A3FA041EE6
:10445000ECD128000021FEF70DFC0400E6E7C04681
:10446000309C0008389C000810B500F0C5F810BD5D
:10447000F0B583001A4C5E58A544CA686B460C0020
:104480003100184F1C31DA5105003A006846FDF73B
:1044900055FEF5226946D200300000F099FB002855
:1044A00005D10223641923720F4B9D44F0BD23698B
:1044B000002B03D1641901332372F5E76A46D35107
:1044C000F5226946D200300000F082FB431E98417D
:1044D000012340429843033064192072E4E7C04648
:1044E00054F8FFFFA4070000AC070000F0B5CE466B
:1044F0004746002380B53B4C0020A544039300F0C1
:1045000021FC041E06D02000374B9D440CBC904675
:104510009946F0BD03A9002000F008FC041EF2D16A
:1045200000F046FA041EEED1304D039C280000F046
:104530009BFA290004AE2E4A1C313000B450FDF71E
:10454000FDFDF5223100D200280000F01DFB041E05
:1045500041D100F071FA041ED5D1F827254BFF0098
:104560009946EB5C3A00581C00949846C1172B0002
:10457000FEF7F6FA041EC6D14A46EB5D3100AB5495
:10458000434604900120EB55039D00F0CFFB00282B
:1045900024D1049B9D4209D9012000F0D3FB041EC5
:1045A000B1D1049B013304939D42F5D83100022020
:1045B00000F0BCFB002811D1049B9D4209D90220C8
:1045C00000F0C0FB041E9ED1049B013304939D4266
:1045D000F5D8002497E700F02FFA94E7842464428A
:1045E00091E7C04644F8FFFFBC07000038A400086C
:1045F000A4070000C1070000F92210B5074C0021F4
:10460000D2002000FDF7F2FDF8230122DB00E25288
:1046100001232377FFF76AFF10BDC04638A40008C6
:104620000023F0B589B003AC23726372E3602361A9
:10463000F8235D4E02AF6060DB0001970096002218
:10464000012000210396FEF7B7FA002801D00123CC
:1046500023720197636800220093F8230220DB0095
:104660000021FEF7A9FA002801D00123637200F0AF
:104670009FF9051E02D0280009B0F0BD06A9002050
:1046800000F054FB051E02D000F0D6F9F3E7390024
:10469000012000F04BFB051EF6D107A9022000F017
:1046A00045FB051EF0D12369029A934200D0206198
:1046B000237A012B03D021000020FFF7D9FE637A73
:1046C000012B03D021000120FFF7D2FE00F0B4F946
:1046D000051ED0D1039B1B7F012B01D00123237228
:1046E00061680B7F012B01D00123637202232289B1
:1046F000FF339A4254D0237A012B4ED0637A012B98
:1047000001D0022B3DD0F823802202200021DB00C3
:104710005200F252FEF7AEFA051E02D003008C33AF
:10472000A9D1002339000120E468029300F0FEFAC9
:10473000002835D1029B9C420AD9012000F002FBDF
:10474000051E00D097E7029B013302939C42F4D8E8
:104750003900022000F0EAFA002821D1029B9C4295
:104760000AD9022000F0EEFA051E00D083E7029B72
:10477000013302939C42F4D8300000F06BF900251D
:1047800079E7F8220123D200B3523000FDF7D6FCBE
:10479000064BF05C0130C117BCE7F822D200F3E70A
:1047A00084256D4267E7C04638A40008C1070000B1
:1047B00070B50D0000282CD000240021164B1A687B
:1047C0005E6832430CD14A1C01383D2A0ED020339A
:1047D00000280DD00C005E6811001A683243F2D038
:1047E00001313D2901D02033E9E7210000280DD116
:1047F000CC1C20000021FEF73DFA002802D1002049
:104800002C6070BD03008C33FBD1F8E78E20404252
:10481000F7E787204042F4E768A40008F0B5464671
:10482000D6464F46C0B58AB005000F0016000021DD
:10483000202202A89846FDF7D9FC284B002003E06F
:10484000013020333D283ED01A68AA42F8D15A6878
:10485000BA42F5D19A689642F2D10130204C430118
:104860009946A246CA442022514602A8FDF766FC9A
:10487000202200215046FDF7B9FC43461B68DA1E92
:104880005201A21815639D1E43466D01651996637A
:104890005763596810222800FDF750FCFFF726FEE9
:1048A000061E09D0079A069B019213430FD12022BE
:1048B00000212800FDF79AFC30000AB01CBC90468D
:1048C0009946A246F0BD2023054C9946D5E7200025
:1048D0002022484402A9FDF731FCE8E768A400085B
:1048E00038A4000870B50F4C002503E001352034D2
:1048F0003D2D14D026688642F8D166688E42F5D1E7
:10490000A668B242F2D1EA1C691C074D49011A603F
:10491000491958681022FDF711FC002070BD8C2049
:104920004042FBE768A4000838A4000830B5174BE4
:1049300089B0002403E0013420333D2C23D01D68CE
:104940008542F8D15D688D42F5D19D68AA42F2D1C9
:104950000F4B01346401E418202221006846FDF762
:10496000EDFB202200212000FDF740FCFFF7BEFDFB
:10497000051E02D1280009B030BD20226946200062
:10498000FDF7DCFBF6E78C256D42F3E768A4000831
:1049900038A4000810B5044A044BD05C0130C1179C
:1049A000FEF768F910BDC04638A40008C107000032
:1049B00030B589B002AC002118222000FDF716FCAA
:1049C00000230193C0239B000593164B16490493C3
:1049D00090239B01A382802301A80693FEF72CF865
:1049E000002801D009B030BD0C23104A104901A89D
:1049F000FEF750F800280FD10E4D01A92A00200023
:104A0000FEF77CF8002807D101A8FDF7E9FF002890
:104A1000E8D02888FDF716FD01A8FDF7E1FF842006
:104A20004042DFE702104006000F00B0584D001072
:104A3000010200000CAC0008054B10B51888FDF70A
:104A400001FD002800D110BD84204042FBE7C04694
:104A50000CAC0008010010B510310C220148FDF724
:104A60006DFB10BD00AC000830B5174C85B00822B6
:104A70002100050002A8FDF761FB21000422083196
:104A800001A8FDF75BFB029803990122002312188D
:104A90004B41029203931A4302D1019B01330193CC
:104AA00002A908222000FDF749FB200001A90422E9
:104AB0000830FDF743FB28000C2221001030FDF7E1
:104AC0003DFB05B030BDC04600AC0008F0B5150098
:104AD000020089B0109F06001148119C00880597BC
:104AE0000F9F029304970E9F019500911032069438
:104AF00003970C230B49FDF7C1FD051E0CD10F9B3D
:104B000021689C4610392160102261443000FDF775
:104B100015FB280009B0F0BD84256D42F9E7C046B9
:104B20000CAC000802104006F0B5C64604009046E2
:104B300000B588B00E9D0F005819102221001E00EC
:104B4000FDF7FCFA0E4B22001888119B10350693D6
:104B5000109B103205930F9B0395049343460296D6
:104B6000019300970C230749FDF744FE002803D169
:104B700008B004BC9046F0BD95204042F8E7C0461E
:104B80000CAC000802104006030030B514008BB0D6
:104B900002000D4809AD00880695049310250023F6
:104BA0000091039302931032059501940C33074949
:104BB000FDF764FD002804D1099B102B01D10BB037
:104BC00030BD84204042FAE70CAC000802104006D9
:104BD00030B503008BB0150002000D4809AC008809
:104BE000069400240594049410340293009110322A
:104BF000039401950C230749FDF7FCFD002804D11F
:104C0000099B002B01D10BB030BD95204042FAE743
:104C10000CAC000802104006F0B589B005AB01935A
:104C20000B001033009380230D001B010022002194
:104C30000400FDF7C1FF002801D009B0F0BD059EBA
:104C40000694FFF7B5FE0028F7D134002F00104E70
:104C50000C3C1C37220039003000FDF76FFA07AB1F
:104C600003930C4B0197029300943300042206A98E
:104C70002800FFF759FF002805D1079B9C4202D16D
:104C8000FFF7DAFED9E7FFF7D7FE84204042D4E7EA
:104C900010AC0008E4070000F0B5CE46474680B5EA
:104CA00087B006000C00CD690490FFF781FE002854
:104CB00004D007B00CBC90469946F0BD1C232F00D1
:104CC00098462000FFF7D0FE05AB0393154B0C3739
:104CD0000293154BA0449946019300974346042242
:104CE00004A92000FFF7F2FE002815D1059B9F4282
:104CF00012D13A0049464046FDF720FAFFF79CFEE4
:104D00000028D6D123002A0000901033183230003A
:104D10000021FDF725FFCCE7FFF78EFE84204042FF
:104D2000C7E7C046F407000010AC000810B50A0041
:104D30000421FDF7E1FF431E98418323404298433D
:104D400010BDC04610B5FDF7B5FF431E9841832343
:104D50004042984310BDC04673746F726167655FCF
:104D60006B657900000000000000000000000000FA
:104D70000000000000000000000000000000000033
:104D8000F0B5CE46474680B58DB000F0E9F8002872
:104D900022D106AB81269846644C08AD764280212C
:104DA000012009064042FDF7DFFFC30616D4830643
:104DB0006FD4430642D403060FD521008020FDF7AF
:104DC000D5FF0028EBD121688B1C00DA94E0002984
:104DD00000DB95E000218BE0FEE7FEE721001020DC
:104DE000FDF7C4FF0028DAD121688B1C00DA9CE0B3
:104DF0000029EFDB00D098E023696068082B00D021
:104E00007BE0A769042F78D1626991462A00FDF7FB
:104E1000AFFF082871D13B00424602216068FDF7D0
:104E2000A7FF042869D1069B01934B460093A06815
:104E3000089A099B00F0C6F8010059E021004020C3
:104E4000FDF794FF0028AAD121688B1C6CDB002998
:104E5000C0DB69D123696068082B63D1226A0C2A00
:104E600060D14246FDF784FF08285BD1069A079B74
:104E70000095A06800F08CF9071E05D101000C23F5
:104E80002A006068FDF776FF39006068FDF774FF5F
:104E900085E721002020FDF769FF002800D07EE78C
:104EA00021688B1C2BDB002994DB28D123696068E7
:104EB000082B22D16769042F1FD1226A91462A004C
:104EC000FDF756FF082818D13B0005AA01216068AC
:104ED000FDF74EFF042810D1434602934B46019341
:104EE000059B0093A068089A099B00F0E5F8010073
:104EF0006068FDF741FF52E7FEE73100F8E7FEE7A3
:104F00000029F9D123696068082BF6D12A00FDF742
:104F10002FFF0828F1D1089A099BA06800F06EF9CC
:104F20000100E5E73700AFE7FEE7FEE7E0C2000873
:104F300010B50B000349020048680121FDF718FF76
:104F400010BDC046E0C2000810B50B0003490200C6
:104F500048680021FDF70EFF10BDC046E0C2000802
:104F600010B5002000F086F9144C0100200000F07C
:104F70007BFA00280BD0200000F09AFA002800D01D
:104F800010BD00F077F90100200000F06DFA01205B
:104F900000F070F90A4C0100200000F065FA0028CA
:104FA000EED0200000F084FA0028E9D1013000F0B2
:104FB00061F90100200000F057FAE1E710CB00088A
:104FC00024CB0008F0B54546DE4657464E46110054
:104FD000E0B589B00500129C19435AD007211398F7
:104FE000884353D107932E4B06929946042205A974
:104FF00018000595FDF7A2F84B460822181D06A9D2
:10500000FDF79CF880235B009D423CD0254B9A46DF
:10501000254D49462A00504600F04EFA002828D176
:10502000AB68DB0738D4C026139BB6021E431F4B68
:105030000027984680231B019B4604E01C4B7F19E8
:105040001E40641B18D025005C4501D980252D0128
:1050500029004046FFF76CFF4346019702930095F5
:10506000230032004946504600F04EFA0028E5D0B1
:1050700002E003008C33D6D009B03CBC9046994680
:10508000A246AB46F0BD0B4B9A46C1E78620404294
:10509000F2E787204042EFE785204042ECE7C04638
:1050A00038CB000810CB000844CB000810C3000820
:1050B000FFFFFCFF24CB0008F0B54E46DE46574606
:1050C00045461100E0B587B00400109E194352D048
:1050D00005932A4B03909846049203A904221800D2
:1050E000FDF72CF843460822181D04A9FDF726F801
:1050F00080235B009C423BD0214B9A46214C414689
:105100002200504600F0D8F9071E27D12468B44287
:1051100031D3119BA41B9C4228D8129B1C601A4BB4
:10512000994680231B019B4606E029004846FFF76D
:105130000BFF7619641B11D025005C4501D9802531
:105140002D014B462A00009341463300504600F0A3
:1051500065FB071EE9D00023129A1360380007B0E0
:105160003CBC90469946A246AB46F0BD1C00D4E735
:10517000064B9A46C2E787277F42EFE738CB000805
:1051800010CB000844CB000810C3000824CB000853
:10519000110070B584B00600089D194322D0134C4D
:1051A0000190029201A9042220000393FCF7C6FF9C
:1051B000201D082202A9FCF7C1FF80235B009E424C
:1051C0000ED00B480B4E2100320000F075F900287C
:1051D00004D133682B606B60B368AB6004B070BD02
:1051E0000548EFE787204042F8E7C04638CB000883
:1051F00010CB000844CB000824CB0008110070B588
:10520000194384B00500002928D0164C0190029261
:1052100001A9042220000393FCF790FF201D08221F
:1052200002A9FCF78BFF80235B009D4211D00E4E3C
:105230000E4D21002A00300000F03EF9002806D172
:10524000AB68DB0707D42100300000F05DFA04B042
:1052500070BD074EECE785204042F8E787204042CA
:10526000F5E7C04638CB000810CB000844CB000857
:1052700024CB0008194B820010B5D45800281FD049
:1052800001281AD1210020001C31183007F018F82D
:1052900007F044F82830208507F058F8033060857F
:1052A000618CE069FBF74AFDA084200000F0EAFA77
:1052B000434258414042044000E00024200010BD19
:1052C000210020001C31183006F09CFF06F0C8FFBA
:1052D000208506F0DDFF01306085E1E7786600108B
:1052E000F0B54E464546DE465746E0B51B4C060037
:1052F000A5448D9D8B4690469946002D2BD080234A
:105300009B009A4610E00094434602AA594630009A
:10531000B768B847002815D18C9BA0449C46A4448C
:1053200063462D1B8C9316D02C00554501D9802443
:10533000A40000948C9B02AA494630007768B847C5
:105340000028E0D083239B009D443CBC90469946B6
:10535000A246AB46F0BD0020F4E7C046F4FDFFFFD7
:10536000F0B557464E464546DE46E0B503688DB07B
:1053700004AA05000E005F8C00F08CFD002806D00A
:105380000DB03CBC90469946A246AB46F0BD09A87C
:1053900001F0F6F8002860D1049B20229846059B76
:1053A00000219946079B04A89A46FCF71FFF04AA10
:1053B0003100280001F0C0F80028E1D12B685B8D96
:1053C000002B2ED00022002493460BE004AA2100DB
:1053D000280001F0B1F80028D2D12B685B8D013490
:1053E000A34220D9A642FAD004AA2100280000F046
:1053F00051FD0028C4D1049B03934345E6D109A87D
:1054000001F0BEF80028E1D1059B4B45DED99F4253
:1054100021D852469B1A0593079B9C460393E3446D
:10542000D4E700239B465B4601934B4652460093CC
:1054300041463B00280000F053FA0028A0D1434623
:10544000002B04D0280000F0DDFC002808D1280043
:1054500000F0A8FC94E71F00DBE78C2040428FE7B8
:10546000842040428CE7C04630B5040083B0002958
:105470001AD0016000F00AFC051E02D0280003B01B
:1054800030BD802101AA4904200000F085FB0028DE
:1054900004D003008C33F1D00500EFE70199200020
:1054A000FFF75EFF0500E9E792256D42E6E7C0469B
:1054B00010B500F07DFE10BD70B58CB0160003AACB
:1054C00004000D0000F0ECFA002819D1200004AA15
:1054D000039900F0DFFC041E02D020000CB070BD68
:1054E0000C2209A92800FCF7D5FE002808D1079B4B
:1054F0007360069B0193336002AB1B8BB360ECE7D8
:105500008C246442E9E7C046F0B54746CE4680B5F4
:1055100098467B4B93B00593069304000F0016004A
:10552000130E00D0E6E005AA00F0BAFA002800D178
:10553000A1E003008C3304D013B00CBC9046994614
:10554000F0BDF30300D4D8E006996D4B994200D02A
:10555000A3E023681B8D434500D2CBE06949059B3E
:105560008C4663441A00531E9A4107AB9946039335
:105570000AAD06AB0193D2B20295009643463900BC
:10558000200000F011FD0028D6D11A9B002B2CD052
:105590001B9BAA68934200D9A9E01A9A1900E868EF
:1055A00000F0E2FF002800D0A1E01C9B2A0001933C
:1055B0001A9B4946009320001B9B00F007FA002825
:1055C00000D094E01B9A1A9B9446AA6863449342C5
:1055D00000D9AB600A992000079E00F05BFA0A9A96
:1055E00007903100200000F00FFF4A460A99200082
:1055F00000F00EFF00287AD12A000699200000F062
:105600009BFF002873D1069B059D9D4250D82A0020
:105610000021200000F020FA002868D1059A384BBC
:10562000691C9A4202D0069B9A4245D12368200009
:105630005A8D00F011FA002859D10A9B002B02D193
:105640001A9B002B04D1200000F0DCFB00284ED177
:10565000200000F0A7FB002800D06DE70599284B3B
:10566000994200D168E7069B994200D164E7200087
:10567000FFF776FE60E70AAD2A000599200000F0EA
:1056800009FC002839D10599B30313D5EB684345CC
:1056900021D1A8602E61069157E707AB1A000A993D
:1056A0002000994600F046FC002820D10AAD6CE7A6
:1056B0001D00ACE7069148E79A4200D21A0020008C
:1056C00000F0CAF9002812D1069B0599994200D230
:1056D00019000131AAE780232A695B0413432000E3
:1056E0002A002B6100F028FF002800D12CE784203D
:1056F000404221E7872040421EE78C2040421BE7C2
:10570000FFFF00000100FFFFF0B54546DE465746AB
:105710004E46E0B58FB005AA050000F0C1F900289B
:1057200000D075E0059E2B6806AA310028005F8C2A
:1057300000F0B0FB002806D00FB03CBC9046994664
:10574000A246AB46F0BD0BA800F01AFF00285FD1BF
:10575000069B20229846079B00219946099B06A894
:105760009A46FCF743FD06AA3100280000F0E4FE4B
:105770000028E1D12B685B8D002B2FD00022002464
:1057800093460BE006AA2100280000F0D5FE002871
:10579000D2D12B685B8D01349C4221D2A642FAD033
:1057A00006AA2100280000F075FB0028C4D1069B42
:1057B00003939845E6D10BA800F0E2FE0028E1D162
:1057C000079B9945DED29F4200D91F0052469B1A83
:1057D0000793099B9C460393E344D3E700239B462E
:1057E0005B4601934B465246009341463B002800DE
:1057F00000F076F800289FD14346002B04D0280003
:1058000000F000FB002806D1280000F0CBFA93E757
:105810008C20404290E7842040428DE7F0B58FB065
:10582000170005AA04000D001E0000F039F9002839
:1058300025D106AA0599200000F02CFB00281BD1D9
:105840000C220BA92800FCF725FD002817D1089B86
:105850003A0031001800039300F086FE002801D0C2
:105860000FB0F0BD149B3200009306A93B0020004E
:1058700000F090F80028F3D084204042F0E78C201C
:105880004042EDE710B5438D828C018D448C5B0165
:10589000012A10D9032A12D0022A1BD12000143861
:1058A000C01A884280418F329043853AA1420CD978
:1058B0009220404209E092204042A14201D9922028
:1058C0004042023A51008A18920008339B18A342C2
:1058D00002D810BD0020F0E792204042F9E7C04610
:1058E000F0B5C64600B588B0170005AA05000E0041
:1058F000984600F01FFB041E04D0200008B004BC32
:105900009046F0BD079B31009C46280067440393F6
:10591000079700F0BFF80F9B0700002B23D1069AD2
:105920000E9B05999A4212D33200280000F06CFDBC
:1059300005AA31002800059700F06AFD041E23D156
:10594000002EDAD02868C36898470400D5E7981A73
:1059500001900B00009239002868FFF7C1FC002875
:105960000FD10599E0E7059B010003930F9B0E9A69
:105970000193434628680093039BFFF7B1FC00287E
:10598000CDD084246442B8E732003900280000F00A
:105990003BFDB2E7F0B587B00D001400096803AA1B
:1059A00006001F0000F0C6FA00280BD103994B1C1B
:1059B00008D030686B680097E3180C9A4468A047D9
:1059C00007B0F0BD84204042FAE7C046F0B5474634
:1059D000CE46160080B50F0083B011681C0005008C
:1059E00000F058F873687A689C466444A31A0193DF
:1059F0000092804601003B682868FFF771FC002890
:105A00000AD10A9B2868009383680B9A99464146FD
:105A10002300C847002804D003B00CBC9046994628
:105A2000F0BDF16873688C4663441A002968B86851
:105A3000498C3B68091A891A0191009241462868ED
:105A4000FFF74EFC0028E7D13368002BE4D028682C
:105A5000C3689847E0E7C04670B50600006882B0AA
:105A6000838C1400022B12D0023B5A00D2189200F1
:105A7000490108310D0064010834AA18641BF36859
:105A8000316901940092FFF72BFC02B070BD0C222B
:105A9000EEE7C046002901D0406870470069FCE786
:105AA000F0B545464E46DE465746E0B5050000686F
:105AB0008DB0438D89469046002B67D00024202668
:105AC00042E02B68049A9B8C022B5AD0023B9A42EC
:105AD0004BD209A800F054FD002829D12868079A64
:105AE000038D9A4241D8069B03939A423DD3049B6F
:105AF00005990393002B16D1438D9B46838C9A46C0
:105B0000022B40D002235B429C46E24453465B009A
:105B10009C46D44463469B009C465B465B0108332D
:105B20006344994221D3408C00F01EFD00281CD113
:105B30000C22494609A8FCF7ADFB002829D02868AB
:105B40000134438DA34221D9818C022917D0023917
:105B50004B00591889006301009608335B184768A9
:105B600004AAE968B847071EABD084277F423800F3
:105B70000DB03CBC90469946A246AB46F0BD0C2108
:105B8000E9E70123A3E70C239C46C6E78C277F4265
:105B9000EDE743461C60EAE7F0B545464E46DE4673
:105BA0005746E0B5050000688DB0438D89469046A4
:105BB000002B65D00024202640E02B68049A9B8CA3
:105BC000022B58D0023B9A4249D209A800F0D8FCD7
:105BD000002829D12868079A038D9A423FD8069B4E
:105BE00003939A423BD3049B05990393002B16D150
:105BF000438D9B46838C9A46022B3ED002235B4208
:105C00009C46E24453465B009C46D44463469B005A
:105C10009C465B465B01083363448B421FD8408C33
:105C200000F0A2FC00281AD14A46089B03931342B5
:105C300029D128680134438DA34221D9818C0229BE
:105C400017D002394B0059188900630100960833B8
:105C50005B18476804AAE968B847071EADD08427D7
:105C60007F4238000DB03CBC90469946A246AB46F8
:105C7000F0BD0C21E9E70123A5E70C239C46C8E70A
:105C80008C277F42EDE743461C60EAE7F0B504004D
:105C9000006887B003689847002801D007B0F0BDBE
:105CA0000825206800954668002302AA0021B04715
:105CB000002817D020684668082304AA0093012111
:105CC0000023B04700280AD16B461B7D012B06D16B
:105CD0006B465A7D2C232068C35C9A4239D18420BC
:105CE0004042DBE76B4620681B7B4668012BE3D113
:105CF0006B462C275A7BC35D9A42DDD0009500236A
:105D000004AA0121B047002826D0012300212068E1
:105D1000236108230093E160221D45680023A84702
:105D20000028DCD1237A012BD9D120682B33627A69
:105D3000C35C9A42D3D00369216998470028ADD14A
:105D400023689A8C022AA9D961681A6918009047B9
:105D5000A4E700230121DBE76B46197D012904D06C
:105D60002368180000210123D2E76B4620685A7D82
:105D7000C55D03009542F4D06B465D7B002A09D1D6
:105D80000023012DC4D19542894100234942954207
:105D90005B41BDE7002DF6D1531E594259415A1EB1
:105DA0009341B5E72C2230B5437A04000133DBB2CE
:105DB0004372006883B0825C9A4201D1002363720F
:105DC00008230093221D856800232169A847002825
:105DD00004D12068C3689847002801D003B030BDC3
:105DE0002369E1682068E36021610369984700281E
:105DF000F4D123689A8C022AF0D961681A691800D4
:105E00009047EBE70C2330B5040089B0006800939D
:105E10004568043B05AAE168A847002823D1236808
:105E200005999A8C914230D2079A0292069A03926F
:105E3000588C029A039900F097FB002825D1059B06
:105E400000220293012B10D9069B029393421CD18E
:105E50002068E3682169448C079DA41A641B01949F
:105E60000092FFF73DFA09B030BD2368998C5A8D36
:105E700002290DD002394B005B189B0052010832F9
:105E8000D218069B02939342E2D098204042EAE760
:105E90000C23F3E770B5050000681400828C82B013
:105EA000022A3ED0023A53009A18920049010B0090
:105EB00008339B182022009246682200E968B04708
:105EC000061E2BD12B6822689B8C022B2BD0023B09
:105ED0009A422CD22000143000F052FB00281DD131
:105EE0002868E268038D9A4221D8A3689A421ED39B
