:020000041000EA
:1004000000940008830400100D000000CDD70010F8
:1004100000000000000000000000000000000000DC
:10042000000000000000000000000000B5D7001030
:10043000000000000000000079D700100105001046
:10044000010500101DA3001001050010010500109A
:10045000010500100105001001050010F1A10010B8
:100460000105001001050010010500100105001034
:100470000105001001050010010500100105001024
:100480007047FFF7FDFF72B6164C174DAC4209DA04
:1004900021686268A368043B02DBC858D050FAE7C1
:1004A0000C34F3E7114B124CA34208DA19685A686E
:1004B0000020043A01DB8850FBE70833F4E70D48DD
:1004C0000D490860BFF34F8F09F08AFFEFF31480E6
:1004D0000221084380F31488084880F309880CF04F
:1004E000B1FBFEE720050010E0050010E00500105C
:1004F000A806001000D3010808ED00E0009C0008E9
:10050000FEE7FEE700B504207146084202D0EFF393
:10051000098001E0EFF3088004302CF015F8FEE7C5
:100520000004001000D301088000000060DC03100C
:1005300080D30108C40B000000DB03100018000882
:1005400000000000E0DB0310009C00082000000019
:1005500000DC031080C200086000000060DC0310B3
:1005600080D200080000000060DC031080A00108B9
:100570000000000060DC031000A60108000000007D
:1005800060DC031080B401080000000000DB0310F1
:10059000001800080000000000DB03100024000821
:1005A000E000000060DC031080C5010800000000CE
:1005B00000DB0310001D00080000000060DC0310D9
:1005C00020C801080000000000DB031080200008A4
:1005D0000000000024E8031000F80208580300009F
:1005E00044DF0108E4570000209C000820180000A8
:1005F00080B40008000E0000E0C20008800800007F
:1006000080CB00080007000080D20008E0AD0000A9
:10061000808001080020000080A001082000000068
:1006200000A101080005000000A6010880020000EA
:1006300080A80108000C000080B401082000000020
:1006400000B5010880030000001800082002000027
:10065000801A000880020000E0240008201000003A
:1006600080B80108000D000080C5010820000000CE
:1006700000C6010820020000001D00082000000044
:10068000801D00080003000020C8010820000000B1
:1006900080C80108000A0000802000082000000037
:0806A000002100080003000026
:0806A80000000000000000004A
:1006B000000000000000000000000000000000003A
:1006C000000000000000000000000000000000002A
:1006E00000000000080000000800000000020000F8
:1006F00000000000000000000000000000000000FA
:100700000000000000000000000000000B000000DE
:100710003F000000000000003F000000000000005B
:1007200030B501210B4883B003F044FA041E0DDDFF
:100730000023002200210193009303F03DFA0500FD
:10074000200003F045FA280003B030BD84256D4237
:10075000F9E7C046C0F0000030B585B00291050051
:1007600001210C48039203F025FA041E0EDD00233C
:1007700029000193009302AA013303F01DFA05003A
:10078000200003F025FA280005B030BD84256D4215
:10079000F9E7C046E0F0000003B4714649084000A4
:1007A0004900095A49008E4403BC7047002243089F
:1007B0008B4274D303098B425FD3030A8B4244D329
:1007C000030B8B4228D3030C8B420DD3FF2209026B
:1007D00012BA030C8B4202D31212090265D0030B2A
:1007E0008B4219D300E0090AC30B8B4201D3CB0320
:1007F000C01A5241830B8B4201D38B03C01A524162
:10080000430B8B4201D34B03C01A5241030B8B4263
:1008100001D30B03C01A5241C30A8B4201D3CB024E
:10082000C01A5241830A8B4201D38B02C01A524133
:10083000430A8B4201D34B02C01A5241030A8B4236
:1008400001D30B02C01A5241CDD2C3098B4201D34E
:10085000CB01C01A524183098B4201D38B01C01ACC
:10086000524143098B4201D34B01C01A5241030943
:100870008B4201D30B01C01A5241C3088B4201D3F2
:10088000CB00C01A524183088B4201D38B00C01A9F
:10089000524143088B4201D34B00C01A5241411AC6
:1008A00000D20146524110467047FFE701B50020D3
:1008B00000F006F802BDC0460029F7D076E7704781
:1008C0007047C0468446101C62468C46191C63461D
:1008D00000E0C0461FB501F0C1F8002801D4002196
:1008E000C8421FBD10B501F00BF84042013010BDE9
:1008F00010B501F0B3F8002801DB002010BD012085
:1009000010BDC04610B501F0A9F8002801DD002097
:1009100010BD012010BDC04610B501F02DF8002813
:1009200001DC002010BD012010BDC04610B501F053
:1009300023F8002801DA002010BD012010BDC046B8
:10094000994201D1801A04D002D20120404270475E
:1009500001207047002B11D1002A0FD1002900D1AE
:10096000002802D00021C943081C07B4024802A194
:100970004018029003BDC04649FFFFFF03B468461C
:1009800001B5029800F09EF8019B9E4602B00CBC97
:100990007047C046F0B515042D0C0F0001002E0065
:1009A000C64684460004140C000C090C46434D4313
:1009B000604361434019340C241800B5A54203D9A3
:1009C0008020400280464144250C6D186146594301
:1009D0007A43300449192404000C2018891804BCF7
:1009E0009046F0BD70B500220C4B04000D00FFF7DF
:1009F0009DFF002804D12000290001F09DFE70BD5C
:100A0000064B00222000290001F004FB01F094FEB7
:100A100080231B069C466044F1E7C0460000E0418D
:100A200070B505000C000022002328002100FFF70C
:100A30005FFF002808D12800210000F00FF8020015
:100A40000B001000190070BD80231B06E118280060
:100A500000F004F8002342428B41F2E770B5002217
:100A60000B4B0D00040001F069F8FFF7BBFF060017
:100A700001F0C8FE0022074B01F060F802000B00F5
:100A80002000290001F0C6FAFFF7ACFF310070BD6D
:100A90000000F03D0000F04170B50600080001F0D4
:100AA00081FE0022064B01F049F80D0004003000E1
:100AB00001F0A8FE2B00220000F0D0F870BDC04667
:100AC0000000F041F0B557464E464546DE46E0B5DB
:100AD00004000D009246994683B08B4230D82DD049
:100AE0004946504601F01AFF29000600200001F097
:100AF00015FF331A9846203B9B4633D45A4653463B
:100B0000934042461F00534693401E00AF423AD8DE
:100B1000AF4200D178E05B46A41BBD41002B00DA58
:100B200075E0002200230092019301235A4693406E
:100B30000193012342469340009328E08242CFD99B
:100B400000220023009201930C9B002B01D01C601B
:100B50005D600098019903B03CBC90469946A2465E
:100B6000AB46F0BD424620239B1A5246DA4041462E
:100B700013004A468A40170042461F43534693409B
:100B80001E00AF42C4D900220023009201934346C5
:100B9000002BD9D0FB0772081A4346467B080EE0AB
:100BA000AB4201D1A2420CD8A41A9D4101202419C4
:100BB0006D410021013E24184D41002E06D0AB426C
:100BC000EED9013E24196D41002EF8D1009801990B
:100BD0005B4600196941002B24DB2B005A46444632
:100BE000D3402A00E2401C005B461500002B2ADBA4
:100BF00026009E40330026004746BE403200801A41
:100C00009941009001919FE7A342BCD883E74246F7
:100C1000202300219B1A0022009101920122DA4038
:100C2000019286E7424620239B1A2A0046469A40B4
:100C30002300F340444613432A00E2401C005B4675
:100C40001500002BD4DA42462F00202326009740BF
:100C50009B1ADE403B003343CDE7C046F0B54F461C
:100C6000D64646460D0001001800C0B517002B03FC
:100C70005A0A4B0F1343CA00914602036E0041000B
:100C8000520AEC0F7D0F1543760D490DC00F8246B9
:100C9000AC46FF00721A844200D198E0002A00DCC2
:100CA00081E0002900D1B6E0C9498E4200D172E14D
:100CB00080212800090408438446382A00DD5EE1CB
:100CC0001F2A00DDEEE1202039006546801A8740AA
:100CD000D14085400D4339004F1EB9416746D7408A
:100CE0002943DB1B4A46551AA945894149425B1AEB
:100CF000984643461B0200D4CCE043465B025B0AA5
:100D000098464346002B00D12CE1404601F0E8FD17
:100D100001000839202228004346521A8B40D04057
:100D20008D4003438E4200DD17E18E1B721C1F2A8B
:100D300000DDA7E1202118002E00891A8D4088408F
:100D4000D640D340691E8D41304398460026054366
:100D50006B0709D00F232B40042B05D02B1DAB4272
:100D6000AD416D42A8441D0043461B0200D494E0EF
:100D7000974B721C9A4200D19DE04146954BED087D
:100D800019400B00520549075B0229431B0B520D0A
:100D900012051343E4072343080019001CBC9046C6
:100DA0009946A246F0BD002A43D08A1B002E00D0EF
:100DB0002AE14C461C4300D1D1E1541E012A00D146
:100DC0001FE2834DAA4200D172E2220023E1002AF1
:100DD00000DC98E0002942D07D498E4200D1DAE063
:100DE00080212800090408438446382A00DD29E1CF
:100DF0001F2A00DC87E1110065462039CD40202AFA
:100E000004D040206146821A91400F4339004F1EA2
:100E1000B9410D431BE12900394300D1B5E0511E12
:100E2000012A00D1ABE16A48824200D1B2E10A0056
:100E300043E76949751C0D4200D0CFE0002E00D079
:100E400093E14946194300D1D1E16146394300D0CD
:100E5000E3E149465807C9080143DB0826E02900B9
:100E6000394300D191E0511E012A05D058488242F1
:100E700000D18FE10A00B8E73D004D444D4589415E
:100E80006344984649428844434602261B0200D5E3
:100E9000EBE0013E6B0700D05CE74346E9085A07E8
:100EA00011433200DB084A48824221D01B0352051D
:100EB0001B0B520D6CE70023002169E72A003A431F
:100EC00069D04A465807D108DA0880231B03084333
:100ED0001A4207D02900ED081D4203D12A00FF085D
:100EE00048073843430FC1005B07C9081943130083
:100EF0000A001A4300D113E28022120313431B039A
:100F0000334A1B0B44E7002A4BD08A1B002E00D12A
:100F1000E7E02F48814200D195E18020000403439F
:100F2000382A00DD43E11F2A00DDDBE120201D001F
:100F30004E46801A8540D64035434E4686403000A6
:100F4000D340461EB0419C440543ED19BD429B4130
:100F50005B42634498460E007FE01E4A761A1340B7
:100F60009846F5E6280001F0BBFC010018311F2966
:100F700000DCCFE62B00083883400025D2E662462D
:100F80003A4311004F1EB941ACE649465807C9081B
:100F90000143DB0887E749465A07C9081143DB08C4
:100FA000A6E70D49701C084200D0BBE0002E00D01F
:100FB00014E14946194300D175E12900394300D0B5
:100FC0007EE149465807C9080143DB086EE7C04681
:100FD000FF070000FFFF7FFFFE0700004946CD1B13
:100FE0006146581AA9458941494288460100404650
:100FF000091A8846090200D5A6E04146294300D0D7
:101000007FE60023002451E7C74CA14200D1C7E08E
:10101000802424042343382A54DC1F2A00DDCCE03A
:1010200020244846A41A1D004E46A040D640A540A4
:101030000400D34062463543661EB441D31A9C4631
:10104000254344E062463A4315006F1EBD414D44BE
:101050004D45894149428846984443461B0200D485
:1010600018E7B14B01369E4249D04246AF4B0121B1
:101070001A4013006A080D401543D9075B089846CB
:101080000D4365E618001F3EF040202A03D04021A2
:101090008A1A93401D43691E8D41002300269846FD
:1010A0000543F7E6110065462039CD40202A04D0DB
:1010B00040206146821A91400F4339004F1EB941CA
:1010C00029430FE64A4613431D006B1E9D417D1BBD
:1010D000AF429B4162465B42D31A984654460E008B
:1010E00007E64846184300D1B3E0501E012A00D15C
:1010F0000DE18D4DAA4200D1A5E0020010E73200BB
:101100000023002144E620213800891A65468F40DB
:101110008D40D040791E8F4105433D436746D740FF
:10112000DB1994E7804A904200D1ECE03900494451
:1011300049459241634452429B18DD0749085B08C8
:10114000984606000D43A5E64A46BD1AAF428941BE
:1011500062464942D31A5B1A98465446D1E56C0759
:10116000F9082143EB0804009DE64A461A4375D16D
:101170006146394314D1802300241B03BCE64A4650
:10118000D51BA9458941624649429B1A5B1A98467C
:101190000126AEE54A46D1085A071143DB08A7E607
:1011A0006346F9085A0754461143DB08A0E64A464D
:1011B00013431D006B1E9D41C7E614001E00203C1A
:1011C000E640202A05D04024A21A93404A461A43FA
:1011D00091464D466B1E9D41354378E74A461A437A
:1011E00000D06BE66B07F9081943EB0880E661460F
:1011F000394354D06346F9085C072143DB080400F7
:1012000054E64A46BD1AAF42894162464942D31A62
:101210005B1A9846040001266BE54A46D51BA94592
:101220008941624649429A1A521A9046120232D5B0
:101230004A46BD1AAF42894162464942D31A5B1AF7
:101240009846040084E56346F9085A071143DB0811
:101250004EE6F90868070143EB0824E662463A4384
:1012600000D198E64A46D1085A071143DA0880238C
:101270001B031A4208D06046C5081D4204D15446DB
:101280002A00F908430719434B0FC9005B07C90837
:10129000194313002CE64146294300D0FAE5002308
:1012A0000A00002402E66B07F9081943EB08FDE584
:1012B0006346F9085B07194363460400DB0817E639
:1012C0003D004D4463444D45894198464942884418
:1012D00043461B0200D4DDE54246144B01261A406A
:1012E0009046D7E510001E002038C640202A05D0C1
:1012F0004020821A93404A461A4391464D466B1E3F
:101300009D41354321E602000023002140E54A4685
:10131000D519BD4289416344984649428844B3E5A2
:101320000021014A0B0033E5FF070000FFFF7FFFAC
:10133000F0B557464E464546DE46E0B581460500C7
:101340000C03480092461F0085B0240B400DCE0FC1
:10135000002859D0874B984200D198E06B0FE400E9
:101360001C4380231B0423439846834BED009B467C
:1013700000239946834400933C037B005046240B92
:101380005B0DFF0F002B67D07A4A934218D07A4941
:10139000420F8C46E40059461443802263441204F1
:1013A000CB1A14439B46C200002033007B409A4670
:1013B0004B460F2B00D9EFE070499B00CB589F465E
:1013C0006F4B52469C462243E344002A00D095E0EE
:1013D000494602231943894600240220E5E70023F9
:1013E0000024002552461B052343D207134328003F
:1013F000190005B03CBC90469946A246AB46F0BDEC
:10140000002400255B4BEDE74B462343984600D173
:1014100089E0002C00D1E0E1200001F061FA010038
:1014200002000B391D235B1A49461000D9400838C9
:1014300084400B004D4623439846854051483C0369
:10144000831A9B460023994600937B005046240B49
:101450005B0DFF0F002B97D15246224355D0002C35
:1014600000D1CAE1200001F03BFA02000B3A1D2333
:1014700001009B1A52460839DA408C401443524608
:101480008A40414B58449B46834400208DE74B469D
:101490002343984640D108239946063B00258346BE
:1014A000009369E7B246009B022BA9D0032B00D121
:1014B00011E2012B93D0354A5A44002A00DC3CE16A
:1014C0006B0700D0A7E1ED084346DB0106D5424695
:1014D0002F4B1A4090468022D2005A442D4B9A42FC
:1014E0008EDC4346520558075C020543240B530D1E
:1014F00078E7BA46A04615000090D4E74A46032391
:101500001A439146032052464FE7494601231943A7
:1015100089460024012048E70C239946093BA04650
:101520008346009328E70423994600239B46013312
:101530000025009320E7002380249A4600250D4BC8
:1015400024034FE7802341461B03194208D01C4265
:1015500006D11C432403BA461500064B240B41E771
:101560008024434624031C432403B246014B240B2E
:1015700038E7C046FF07000001FCFFFF34290010D8
:1015800001F8FFFF0DFCFFFFF3030000FF03000065
:10159000FFFFFFFEFE070000444500D216E100D128
:1015A00011E101235B429C462E0040460025E344A6
:1015B0002302140E1C431B0C994623041F0C120219
:1015C000494600920197FFF777F902007A430B042E
:1015D000310C804619438A420BD901235B429C4659
:1015E0000919E0448C4204D88A4202D9831E9846E5
:1015F0000919881A4946FFF75FF909048C46310436
:101600006646019A090C4243030031438A4204D9D9
:101610000919013B8C4200D811E1891A4246009E0B
:1016200012041A43330C1F00100C9046029313044B
:101630003204160C32001B0C5A4303967B4346437C
:101640007843170CBC469B1963449E4203D98026FD
:101650007602B44660441E0C301816041B04360C87
:101660009E19814200D29CE000D197E0AE1B091A7E
:10167000B54280414042081A844200D111E14946F6
:10168000FFF71AF9019A0B044243310C0500194384
:101690008A4207D90919013D8C4203D88A4201D9EF
:1016A000851E0919881A4946FFF706F909048C4670
:1016B00031046646019A090C4243030031438A42D1
:1016C00007D90919013B8C4203D88A4201D9831EEC
:1016D0000919039E891A32002D041D43029F2B0411
:1016E0001B0C5A437B439C46280C4643130CB444C2
:1016F000634478439E4203D980267602B446604410
:101700001E0C12041B04120C30189B18814206D3C5
:1017100002D001231D43CEE6002B00D1CBE6611899
:101720006E1EA14200D2A4E0814200D2C9E000D1E5
:10173000D9E03500EDE701256D420121891A3829EC
:1017400000DD4CE61F2900DC7FE01F235B429A1A74
:101750004346D340202904D04446654A5A44944025
:1017600025436A1E954107222B43150000241D4086
:101770001A4200D1A1E00F2200241A40042A00D10D
:1017800098E01A1D9A429B415B42E4181300220222
:1017900000D48FE001230024002523E6B54200D3C6
:1017A00064E743465A1E009B9C4665441F009D42C9
:1017B0009B415B421B19C9188C423AD2884263D8BC
:1017C00060D0904652E7AA4200D9EAE64346DE07D7
:1017D00058086B081E43ED07EAE6484601F080F81A
:1017E00001000200153120321C2900DC1AE64B46AC
:1017F000083883400025984620E601F071F8030080
:101800001A00153220301C2A00DC30E65446083B12
:1018100000229C4035E60F232B40042B00D152E6DA
:1018200005235B42AB429B4104355B42ED08984483
:101830004AE68C42C5D1AF42C0D9904616E78A42EB
:1018400000D8EAE6831E0919E7E62A4A28005A4426
:10185000434695409340C8406A1E95414446034321
:101860002B43CC405A0792D00F221A40042A88D129
:101870008DE73500814200D04BE7009A934200D0BB
:1018800047E718E6AE429CD902235B429C46009B88
:10189000E0449C4665449D429B415B421B19C9182C
:1018A000E4E6154A5A44002A00DC44E701230025F7
:1018B000984409E665076402240BDB081D430023F6
:1018C00090E5009E023D7200B242BF417F423C194A
:1018D00009190092CEE78024434624031C432403C5
:1018E000064B240B7EE5009A9A42EAD33500C4E702
:1018F0003E0400001E040000FF030000FF0700007C
:10190000F0B54F464646D646944691461A03120B0A
:10191000184DC0B54C000F0392465A000600804691
:101920003F0B0120640DC90F520DDB0FAC420AD0F2
:10193000AA4203D0944201D157450DD01CBC904619
:101940009946A246F0BD3D003543F7D1A242F5D1FC
:10195000524665462A43F1D10120C845EED199424D
:1019600006D0002CEAD13E433000461EB041E5E7E8
:101970000020E3E7FF070000F0B54E464546574616
:10198000DE4604001800E0B516001B031B0B324DA9
:101990000F034A0099464300A446B0463F0B520D40
:1019A000C90F5B0DC00FAA4229D0AB4218D0002A44
:1019B0002AD13C43A34665426541002B02D14C46E7
:1019C000264327D0002D15D1814228D0022001398D
:1019D000084001383CBC90469946A246AB46F0BD53
:1019E0004D462E432FD1002AEED13C43654265413E
:1019F000002DE9D00028EDD101204042EAE73D006A
:101A0000254320D19342EBD0002BDDD14C46264319
:101A1000DAD1DBE75B460020002BDBD0D6E79A4229
:101A20000ADCE7DB4F45D1D810D000204F45D1D29A
:101A30000029E1D00800CDE743425841022340424B
:101A400018400138C6E702204042C3E7C445BDD86C
:101A50000020C445BED2EBE7FF070000F0B54E46BC
:101A600045465746DE4604001800E0B516001B0345
:101A70001B0B314D0F034A0099464300A446B04664
:101A80003F0B520DC90F5B0DC00FAA4211D0AB42E4
:101A900014D0002A2FD13C43A34665426541002B58
:101AA00014D14C46264311D15B460020002B17D0A1
:101AB00010E03D00254312D193421CD14D462E43E8
:101AC0000DD1002A04D13C4365426541002D0DD162
:101AD000814216D0022001390840013800E002207E
:101AE0003CBC90469946A246AB46F0BD0028F7D1D3
:101AF00001204042F4E7002BEAD14C462643E7D1CF
:101B0000E8E79A4206DD434258410223404218402A
:101B10000138E5E79A42E9DB4F45DBD806D00020E3
:101B20004F45DDD20029E3D00800D9E7C445D1D81C
:101B30000020C445D4D2F5E7FF070000F0B55746B2
:101B40004E464546DE46E0B598460C034B0006007F
:101B5000924687B0240B5B0DCF0F002B6CD0DD4A73
:101B6000934200D186E0420FE40014438022120425
:101B70001443D94AC5009446634400930023994610
:101B80009B46434642461E03D20F5B00504690469A
:101B9000360B5B0D00D178E0CE4A93421DD0CE4982
:101BA000420F8C4600996344F6008C46164380220F
:101BB0009C44120463461643C2000020009300991F
:101BC000434601318C4649467B4001930F2900D999
:101BD0007EE0C24B890059588F465246009B3243E3
:101BE00000D056E1BB4900268C4663444946009329
:101BF0000223194389460220E1E74346019334005A
:101C0000150083465B46022B5ED0032B00D1F3E127
:101C1000012B00D018E1002200240025019B1205B1
:101C20002243DB071A432800110007B03CBC904652
:101C30009946A246AB46F0BD2500054300D141E1DF
:101C4000002C00D1ADE1200000F04AFE01000200AE
:101C50000B391D2310005B1A310035000838844011
:101C6000D94085400C439E48831A0093002399462F
:101C70009B4686E70500254300D01CE1082200931F
:101C80000223002491469B467BE75246324300D113
:101C90000AE1002E00D176E1300000F021FE0200C2
:101CA0000B3A1D2301009B1A52460839DA408E4038
:101CB000164352468A40009B8949181A03008C46F5
:101CC0006344002000937AE700240025814AA5E7B9
:101CD0002F0C2D042D0C2B00110C1204120C53434D
:101CE0009846130028007B4399464843484483465E
:101CF00040460B00000C824658467B4350440293FA
:101D0000814506D99A4680235B029946CA445346C8
:101D10000293030C9B4643461B0400041B0C98468D
:101D2000030043440493330C99462B003604360CCD
:101D30007343984633007B439A464B465D435F436B
:101D400043465544180C4019824503D980235B0251
:101D50009A465744050CEB19059343461D042D0C78
:101D600000044019250C2404240C270057436A431F
:101D700090462A003B0C9A464A43614341445144F1
:101D80008344884503D980235B02984642443F043C
:101D90000B0C3F0C0904C919270098464B467743A2
:101DA0005C436E435D433B0C9946A4194C4442444A
:101DB0000395A64204D980235B02984645440395C7
:101DC000029B3F045B441E008342804123049846EB
:101DD000059B3F0C4744984676188E4289414744FC
:101DE00040423D18A846934649428A46C3449F4212
:101DF000BF4180458041039BDA44984653464042A8
:101E00007F420743240C934592418A4589413F19FB
:101E1000DC0D049B75021D43681E854153465242EA
:101E200049420A43BF184744F60D7F0235435A0220
:101E30003C431543FB0100D4C1E001216A080D4079
:101E40001543E2071543640826496144002956DD1D
:101E50006B0709D00F222A40042A05D02A1DAA4266
:101E6000AD416D4264191500E30104D580211E4A7D
:101E7000C900144061441D4A914200DD24E7620715
:101E8000ED08640249051543240B4A0DC6E6019787
:101E9000B8E6104A0320944663444A46009303235D
:101EA0001A43914652468AE6494601231943894618
:101EB0000026012083E60C220093032305009146AF
:101EC0009B465EE6042399460023009301330024D9
:101ED0009B4656E6FF07000001FCFFFF7429001037
:101EE0000DFCFFFFFF030000FFFFFFFEFE070000E9
:101EF000002380240025444A019324038EE6012018
:101F0000401A382800DD86E61F285BDD1F222300EB
:101F10005242511ACB401900202803D03B4A624458
:101F2000944025436A1E95412A000A4307210D006B
:101F30000024154011425BD00F21002411400429D8
:101F400053D0111D914292415242A4180A0023021B
:101F50004BD501220024002560E680231B031C4290
:101F600009D01E4207D133431C0343461500240BFE
:101F7000254A019352E68022120314432403224A85
:101F8000240B01974AE600F0ABFC03001A0015325F
:101F900020301C2A00DC84E65646083B00229E4086
:101FA00089E600F09DFC01000200153120321C2959
:101FB00000DC4EE6340008380025844053E6009BE0
:101FC0009C4641E71249220061442E008D408A4020
:101FD000C640691E8D4132432A43C4405307B6D0E0
:101FE0000F2111400429ACD1B1E765076402240B2D
:101FF000D2081543002211E6802212031443240361
:10200000014A240B0AE6C046FF0700003E04000018
:102010001E040000F8B557464E464546DE4604000D
:10202000E0B51F0010000B03620F4E00CD0F5B0ADE
:1020300039031343490AE200440F2143C24C91463D
:102040009246C0007A008046760D520DFF0FA242E4
:1020500000D1B4E001246740BB46BD4200D188E016
:10206000B41AA446002C00DCB2E0002A00D1C5E07E
:10207000B54A964200D18BE2802212041143624697
:10208000382A00DDA1E11F2A00DD16E220270C001E
:10209000BF1ABC400200A0466446B840E240444635
:1020A00014430200501E82416046C14022435B1A25
:1020B00049468C1AA145924152429B1A9846434682
:1020C0001B0200D417E143465B025B0A9846434675
:1020D000002B00D16CE1404600F002FC0200083AFF
:1020E000202120004346891A9340C840944003436E
:1020F000964200DD57E1961B711C1F2900DDCBE1E4
:10210000202218002600521A94409040CE40CB4026
:10211000621E94413043984600260443630709D069
:102120000F232340042B05D0231DA342A441644266
:10213000A0441C0043461B0200D4DFE0824B013662
:102140009E4200D1FBE04246804BE4081A40130057
:10215000710552075B0222431B0B490D0905ED0770
:102160001943294310003CBC90469946A246AB4611
:10217000F8BDB41AA446002C58DD002A00D19EE018
:10218000714A964200D13BE180221204114362461B
:10219000382A00DDC1E01F2A00DCBBE10C00203A38
:1021A000D44022006446202C04D040273F1BB94075
:1021B000084380464446611E8C411443B1E00C0044
:1021C00004432AD0BB46BD422DD0614CA446B44442
:1021D0006446002C5CD0941BA446002E00D015E170
:1021E0004D461D4300D1C3E1651E012C00D10CE218
:1021F000554EB44200D1F8E1AC460EE10A0002436C
:1022000000D136E12200013A012C00D1C6E14E4C4A
:10221000A44500D1F4E0944631E701246740BB4671
:10222000BD4200D01CE74A4CA446B4446446002C8E
:1022300000D1CFE0941BA446002E00D15CE1424EB9
:10224000B24200D1ECE18026360433436446382C98
:1022500000DDB3E11F2C00DD38E22026361B1C0018
:10226000B4404F46A0466446E74044463C434F4690
:10227000B7403E00771EBE4134436646F340C9185E
:10228000241884429B415B429846160088444EE0E5
:10229000304A741C144200D0D6E04A461A43002E3D
:1022A00000D05BE1002A00D1A5E10A00024300D082
:1022B000BBE14A465907D2080A43DB0827E00A0077
:1022C000024300D174E12200013A012C05D01E4CDA
:1022D000A44500D194E0944659E7484448459241CA
:1022E0005B189846040052429044434602261B0263
:1022F00000D5C4E0013E630700D011E74346B44671
:102300005907E2080A43DB080F498C4540D0614673
:102310001B0349051B0B490D20E701430C00611EFF
:102320008C414C444C45924152429046984443461D
:102330001B02E0D5044B01369E4200D09FE03100E5
:10234000002300220AE7C046FF070000FFFF7FFFCF
:1023500001F8FFFFFE070000002A00D160E10A003B
:1023600002434DD04A465C07D20822438024DB0852
:102370002403234207D0CE08264204D15D46330011
:10238000C20849070A43510FD200D20849070A433D
:102390001100194300D1C8E1802109030B431B033D
:1023A000D5491B0BDAE6D549B61A0B409846B5E677
:1023B000200000F095FA020018321F2A00DC8FE698
:1023C000230008388340002492E608430200501E90
:1023D00082416DE6CA4C721C224200D0ADE04A46F2
:1023E0001A43002EB8D1002A00D158E10A00024356
:1023F00000D059E14A465907D2080A43DB0886E76C
:102400004A465907D2080A43DB08C1E7BA4DAA4237
:1024100000D11EE180252D042B436446382C5DDC61
:102420001F2C00DDD0E0202567462D1B4E461C00EA
:10243000FE40AC4034434E46AE403500FB406E1E7D
:10244000B541C91A2C434EE04A46141AA14592419F
:10245000524290465F1A3A004746D21B90461202FB
:1024600000D58BE04246224300D030E60023002511
:102470004DE74A465907D2080A43DB0844E742467B
:102480009E4B61081A401300012214400C43DA07E6
:102490005B089846144341E61A001F3EF2401600BE
:1024A000202903D04022511A8B401C43621E9441C4
:1024B00000233443984600261DE70C00203AD44000
:1024C00022006446202C04D040273F1BB94008431B
:1024D00080464446611E8C412243E9E54C46234335
:1024E0001C00631E9C41041BA0429B415B42CB1A13
:1024F00098465D461600E2E54E461E4300D1AEE02A
:10250000661E012C00D1FDE07B4FBC4200D107E1EB
:10251000B4469BE664462022121B0C009440070040
:102520009040A0466446421E90416246E7404446C1
:10253000D1403C4304435B18F3E66F4CA24200D108
:10254000D5E048445B184845894149425B18DC079F
:1025500040085B08984616000443CCE6002A00D0E9
:1025600082E00A00024340D1802300251B0313E7C9
:102570004B07C2081A435D46CB08C5E64A46841A93
:10258000A0429241CB1A52429B1A98465D469EE564
:102590004A465907D2080A43DB08F9E64A46141AA4
:1025A000A14592415B1A52429B1A9846012686E544
:1025B0004A465907D2080A43DB08A5E64C4623439E
:1025C0001C00631E9C415BE665461E00203DEE40FC
:1025D000202C05D040252D1BAB404C461C43A24669
:1025E0005446631E9C4134437DE74B07C2081A439F
:1025F0005D46CB08CCE60A00024300D136E74B0724
:10260000C2081A435D46CB0881E64A46841AA042B6
:102610009241CB1A52429B1A98465D4601264EE5DE
:102620004B07C2081A43CB08B2E64A46141AA14522
:1026300092415F1A5242BA1A904612026BD54A462C
:10264000841AA0429241CB1A52429B1A98465D4688
:1026500064E54B07C2081A435D46CB0898E64B0772
:10266000C2081A43CB084FE60A00024390D04A46FC
:102670005C07D20814438022DB081203134208D0FF
:10268000CE08164205D1C0084907084304005D463C
:102690003300610FE2004907D2080A4378E64B078E
:1026A000C2081A43CB0832E648445B1848459241B9
:1026B000984652429044434604001B0200D41AE656
:1026C00042460E4B01261A40904614E666461F000D
:1026D000203EF740202C05D04026361BB3404C4608
:1026E0001C43A2465446631E9C413C43C8E511006E
:1026F0000023002232E5C046FF070000FFFF7FFFF6
:10270000FE0700004A461418844292415B1898461E
:1027100052429044E9E54246224300D1A6E6EAE56A
:102720004B07C2081A43CB0832E6002201491300C6
:1027300014E5C046FF0700000A0030B5134C5300F3
:1027400009030500090B00205B0DD20FA34204DD35
:102750000F48834202DD0F4BD01830BD802040036C
:1027600001430D48C01A1F2808DD0C48C31AD94080
:102770000B005842002AF0D11800EEE7084CC54083
:10278000A446634499400B002B43F2E7FE0300008C
:102790001D040000FFFFFF7F33040000130400004E
:1027A000EDFBFFFF70B5002816D0C317C5185D40BC
:1027B000C40F280000F094F8114A121A0A2816DCF7
:1027C00003002E0015339E400B23181AC5405305F5
:1027D0002D032D0B5B0D03E00024002300250026B4
:1027E0001B052B43E40723433000190070BD0B3851
:1027F000854053052D0300262D0B5B0DF0E7C046E9
:102800001E04000010B5041E10D000F069F80F4B34
:102810001B1A0A2811DC0B222100121AD140153094
:102820000A035B058440120B5B0D01E000230022CC
:102830001B0513432000190010BD22000B388240F5
:102840005B0512030024120B5B0DF1E71E04000070
:1028500070B543004602C40FFE201B0E591C750ABA
:1028600008420CD0E022920094466D07360B634478
:102870001B053343E40723432800190070BD002BD8
:1028800014D1002D1BD0280000F02AF80A281CDCE7
:102890000B232A001B1ADA40030015339D400E4B10
:1028A00012031B1A5B05160B5B0DE1E7002D09D027
:1028B000320B80263603094B6D071643D8E70023F9
:1028C0000026D5E70026054BD2E703002A000B3B84
:1028D0009A400025E3E7C04689030000FF07000097
:1028E0001C2101231B04984201D3000C10391B0A40
:1028F000984201D3000A08391B09984201D3000904
:10290000043902A2105C40187047C046040302025A
:1029100001010101000000000000000010B50029C5
:1029200003D1FFF7DDFF203002E0081CFFF7D8FFDE
:1029300010BDC0469815001000140010DE130010E2
:10294000F2140010DE13001036150010DE13001014
:10295000F2140010001400100014001036150010BE
:10296000F2140010A4140010A4140010A4140010F9
:1029700044150010D01C0010FE1B0010FE1B0010A0
:10298000FA1B0010041C0010041C0010F01E0010A4
:10299000FA1B0010041C0010F01E0010041C001094
:1029A000FA1B00108E1E00108E1E00108E1E0010CE
:1029B0005A1F0010F0B505000C00002A12D00300C9
:1029C0000B43DB070FD5012705E0190031431C003D
:1029D00035000F4209D02178013A631C6E1C297022
:1029E000002AF2D1F0BD0B000600012A35D93100D2
:1029F000194389072FD5D11802239C4696198D1AA1
:102A0000AB1C2D88B41A023AA71C2580012A26D9AE
:102A10001C0065463C432542F1D13E00032A1DD9E6
:102A2000141FA408A400191D6418FE1A191DF71814
:102A30001B6808C70B008C42F8D103231A40541EB0
:102A4000002ACFD064187F1A0A787A540A0001311C
:102A50009442F9D1C6E73700DFE7012237001900B9
:102A6000541EEDE7F0B50400CDB2002A0BD0830769
:102A70000AD0032702E01C001F4206D0013A631C63
:102A80002570002AF7D1F0BD0300032A24D9FF26C0
:102A9000FF270C060E403F040904394026430E432D
:102AA000240C2643141FA1088F001C1D8C463F19BF
:102AB00000E004341E6021002300BC42F9D16346CB
:102AC000561F9C00341B9307DDD064180A000D705C
:102AD00001319442FAD1D6E71900541EF5E7C046F9
:102AE00030B5531E04000020002A05D10CE0002858
:102AF00006D1A81A013B07D325780A789542F6D16A
:102B000001340131013BF7D230BDC046F0B5C646B5
:102B1000040000B5814205D3FFF74CFF200004BC40
:102B20009046F0BD16188B1830009846002AF5D054
:102B30001F003743FD0712D501239C4602E08B1886
:102B4000984616194346013B1D78701E013A0570E0
:102B5000002AE3D01F00654607433D42EFD1012A1A
:102B600035D9B90731D502279D1A861AA918023915
:102B7000B0180B880238023A0380012A29D90B00C9
:102B800003431F42F2D10B00032A21D9131F9B08D4
:102B90000E1F9B00F61A401A0B1F41180D1F1968D3
:102BA000296019009E42F7D103210A40561E002ACF
:102BB000B4D0581E801BE91A5A1E15785B18013BC9
:102BC0001D7013008242F7D1A8E71900DBE701224C
:102BD000190005000B00561EE9E7C04604DF7047E8
:102BE00030B595B00C002422002103900BA8FFF70C
:102BF00039FF0AAA06922822079203AA0223089202
:102C000004220121802004940A930992059300F084
:102C1000D1FF041E0FDD0123019304AB00930021BB
:102C2000022306AA00F0C8FF0500200000F0D0FF34
:102C3000280015B030BD84256D42F9E730B58FB05E
:102C400004002422002105A8FFF70CFF032304AD94
:102C50000493012125338020EC800295039300F03A
:102C6000A9FF041E0EDD002300210193009302AA98
:102C7000013300F0A1FF0500200000F0A9FF2800AB
:102C80000FB030BD84256D42F9E7C046F0B595B070
:102C900007000E001500002124220BA81C00FFF7DE
:102CA000E1FE04230A930AAB049328230593103B07
:102CB00007930121163B80200294069708960995F8
:102CC000039300F077FF041E0FDD0123019302AB95
:102CD00000930021032304AA00F06EFF05002000EA
:102CE00000F076FF280015B0F0BD84256D42F9E7AD
:102CF00030B58FB004002422002105A8FFF7B2FEF2
:102D0000052304AD0493012123338020EC80029538
:102D1000039300F04FFF041E0EDD002300210193FA
:102D2000009302AA013300F047FF0500200000F0E5
:102D30004FFF28000FB030BD84256D42F9E7C04633
:102D400030B591B00C0005002822002106A8FFF73D
:102D500089FE6B46DD8306AB029328230121039392
:102D60008020103B0494059300F024FF041E0FDD27
:102D70000123019304AB00930021012302AA00F078
:102D80001BFF0500200000F023FF280011B030BD1C
:102D900084256D42F9E7C04630B591B00400242285
:102DA000002107A8FFF75EFE06AB0293282301254A
:102DB00003930121103B802004940695059300F0B5
:102DC000F9FE041E0ADD04AB0093002101230195E6
:102DD00002AA00F0F1FE200000F0FAFE11B030BDB2
:102DE000F0B5C64600B590B0140006000D002422D0
:102DF000002107A89846FFF735FE062306AF069385
:102E00000121223380200594FE80029703930495CC
:102E100000F0D0FE041E14DD0123019304AB0093E7
:102E200002AA0123002100F0C7FE4346059A0500CF
:102E30001A60200000F0CCFE280010B004BC9046C0
:102E4000F0BD84256D42F7E7F0B5C64600B590B0F9
:102E5000140006000D002422002107A89846FFF761
:102E600001FE072306AF069301212133802005943C
:102E7000FE8002970393049500F09CFE041E14DD6F
:102E80000123019304AB009302AA0123002100F067
:102E900093FE4346059A05001A60200000F098FE54
:102EA000280010B004BC9046F0BD84256D42F7E7C1
:102EB000F0B593B004000E0015000021242209A8EB
:102EC000FFF7D0FD1E230893236808AFFB6028237B
:102ED000012105938020243B0294049706960795D0
:102EE000039300F067FE041E0FDD0123019302AB84
:102EF00000930021022304AA00F05EFE05002000DA
:102F000000F066FE280013B0F0BD84256D42F9E79D
:102F1000F0B591B004000F0016000021242207A88C
:102F2000FFF7A0FD1B230693236806ADEB60282363
:102F3000012103938020243B0494EF8002950593A4
:102F4000AE6000F037FE041E0FDD0123019304ABD9
:102F500000930021012302AA00F02EFE05002000AC
:102F600000F036FE280011B0F0BD84256D42F9E76F
:102F7000F0B591B004000F0016000021242207A82C
:102F8000FFF770FD1C230693236806ADEB60282332
:102F9000012103938020243B0494EF800295059344
:102FA000AE6000F007FE041E0FDD0123019304ABA9
:102FB00000930021012302AA00F0FEFD050020007D
:102FC00000F006FE280011B0F0BD84256D42F9E73F
:102FD000F0B5C64600B594B004000F0016001D0001
:102FE00024220AAB00210BA89846FFF73BFD1F23C4
:102FF0000A93434622680293DA6028230393243B12
:1030000007931A9B01218020069404970596089542
:10301000099300F0CFFD041E14DD0223019306ABDB
:10302000009302AA0223002100F0C6FD099A1B9B0F
:1030300005001A60200000F0CBFD280014B004BC8D
:103040009046F0BD84256D42F7E7C04630B591B09B
:1030500004002422002107A8FFF704FD2123069382
:10306000236806ADEB602823012103938020243BD5
:1030700004940295059300F09DFD041E0FDD0123CD
:10308000019304AB00930021012302AA00F094FDF8
:103090000500200000F09CFD280011B030BD842503
:1030A0006D42F9E7F0B5C64600B592B004000E00D7
:1030B0001500002124221F0009A808AB9846FFF73D
:1030C000D1FC20230893434622680293DA60282328
:1030D000012103938020243B0494059306960795D1
:1030E00000F068FD041E13DD0223019304AB00937E
:1030F0000021012302AA00F05FFD079B05003B6051
:10310000200000F065FD280012B004BC9046F0BD20
:1031100084256D42F7E7C04670B590B004000E00FC
:103120002422002107A8FFF79DFC0B2306932368A8
:1031300006ADEB602823012103938020243B0494F7
:1031400002950593AE6000F035FD041E0FDD0123EE
:10315000019304AB00930021012302AA00F02CFD8F
:103160000500200000F034FD280010B070BD84255B
:103170006D42F9E7F0B593B004000E001500002190
:10318000242209A8FFF76EFC0C230893236808AFDC
:10319000FB602823012105938020243B029404979F
:1031A00006960795039300F005FD041E0FDD01232D
:1031B000019302AB00930021022304AA00F0FCFC5F
:1031C0000500200000F004FD280013B0F0BD8425A8
:1031D0006D42F9E7F0B5C64600B592B004000E00A6
:1031E0001500002124221F0009A808AB9846FFF70C
:1031F00039FC0D230893434622680293DA602823A2
:10320000012103938020243B04940593069607959F
:1032100000F0D0FC041E13DD0223019304AB0093E5
:103220000021012302AA00F0C7FC079B05003B60B8
:10323000200000F0CDFC280012B004BC9046F0BD88
:1032400084256D42F7E7C046F0B593B004000E0048
:1032500015000021242209A8FFF704FC0E2308937F
:10326000236808AFFB602823012105938020243BBD
:103270000294049706960795039300F09BFC041EA6
:103280000FDD0123019302AB00930021022304AA66
:1032900000F092FC0500200000F09AFC280013B01A
:1032A000F0BD84256D42F9E7F0B591B004000F0040
:1032B00016000021242207A8FFF7D4FB142306934D
:1032C000236806ADEB602823012103938020243B73
:1032D0000494EF8002950593AE6000F06BFC041E31
:1032E0000FDD0123019304AB00930021012302AA07
:1032F00000F062FC0500200000F06AFC280011B01C
:10330000F0BD84256D42F9E7F0B593B004000E00DE
:1033100015000021242209A8FFF7A4FB1523089318
:10332000236808AFFB602823012105938020243BFC
:103330000294049706960795039300F03BFC041E45
:103340000FDD0123019302AB00930021022304AAA5
:1033500000F032FC0500200000F03AFC280013B019
:10336000F0BD84256D42F9E7F0B593B004000E007E
:1033700015000021242209A8FFF774FB17230893E6
:10338000236808AFFB602823012105938020243B9C
:103390000294049706960795039300F00BFC041E15
:1033A0000FDD0123019302AB00930021022304AA45
:1033B00000F002FC0500200000F00AFC280013B019
:1033C000F0BD84256D42F9E7F0B5C64600B594B06E
:1033D00080460F001600002120220BA81C001A9D19
:1033E000FFF740FB222342460A936B460C97DA858F
:1033F0001394002D3AD00AAB0493282305931C9B09
:10340000089506931D9B07931B9B09931E9B029394
:103410001F9B0393102C2CD8002E09D0002C07D012
:1034200000210AAB5818735C013103758C42F8D146
:103430000121802000F0BEFB041E1DDD2B000122B7
:103440005D1EAB41019202AA02330092002104AA40
:1034500000F0B2FB039A209B05001A60200000F0E8
:10346000B7FB280014B004BC9046F0BD1B9B002B9A
:10347000C1D087256D42F4E784256D42F1E7C0464F
:10348000F0B5C64600B594B080460F001600002186
:1034900020220BA81C001A9DFFF7E4FA23234246C2
:1034A0000A936B460C97DA851394002D3AD00AAB39
:1034B0000493282305931C9B089506931D9B079353
:1034C0001B9B09931E9B02931F9B0393102C2CD8CC
:1034D000002E09D0002C07D000210AAB5818735CCD
:1034E000013103758C42F8D10121802000F062FB8C
:1034F000041E1DDD2B0001225D1EAB41019202AABC
:1035000002330092002104AA00F056FB039A209B8C
:1035100005001A60200000F05BFB280014B004BC1A
:103520009046F0BD1B9B002BC1D087256D42F4E770
:1035300084256D42F1E7C046F0B5C64600B592B0AD
:1035400080460F0015000021242209A81C00FFF767
:1035500089FA2E230893434608AEF3802823059367
:10356000189B01210293199B8020079404960695CD
:103570000393B76000F01EFB041E14DD01230193CA
:1035800002AB009304AA0223002100F015FB039A6A
:103590001A9B05001A60200000F01AFB280012B0E8
:1035A00004BC9046F0BD84256D42F7E7F0B5C646F1
:1035B00000B592B080460F0015000021242209A812
:1035C0001C00FFF74FFA2F230893434608AEF38001
:1035D00028230393189B01210693199B80200594AF
:1035E000029604950793B76000F0E4FA041E10DD1C
:1035F000002300210193009302AA033300F0DCFAB8
:103600000500200000F0E4FA280012B004BC904647
:10361000F0BD84256D42F7E7F0B58FB005000F00CF
:1036200016000021202206A8FFF71CFA3623049377
:103630002B6804ACE360282301218020A780E6806A
:103640000294039300F0B6FA041E0EDD002300215D
:103650000193009302AA013300F0AEFA05002000A6
:1036600000F0B6FA28000FB0F0BD84256D42F9E7EE
:1036700030B591B004002422002107A8FFF7F2F929
:103680003A230693236806ADEB60282301210393B8
:103690008020243B04940295059300F08BFA041ECD
:1036A0000FDD0123019304AB00930021012302AA43
:1036B00000F082FA0500200000F08AFA280011B01C
:1036C00030BD84256D42F9E770B590B004000E005E
:1036D0002422002107A8FFF7C5F9322306932368A7
:1036E00006ADEB602823012103938020243B049442
:1036F00002950593AE6000F05DFA041E0FDD012314
:10370000019304AB00930021012302AA00F054FAB4
:103710000500200000F05CFA280010B070BD842580
:103720006D42F9E7F0B5C64600B590B0070088468F
:1037300015000021242207A81C00FFF793F9352368
:103740000693434606AEB3803B680121F36028230D
:103750008020059402960393049500F02BFA041E32
:1037600010DD002300210193009302AA023300F030
:1037700023FA0500200000F02BFA280010B004BC4A
:103780009046F0BD84256D42F7E7C046F0B593B092
:10379000140005000E002422002109A8FFF762F999
:1037A00039230893336808AFFB6028230593103B47
:1037B00007930121163B80200294049706950393FA
:1037C00000F0F8F9041E0FDD0123019302AB009312
:1037D0000021022304AA00F0EFF90500200000F008
:1037E000F7F9280013B0F0BD84256D42F9E7C04613
:1037F00030B587B0029003912020012104920593F7
:1038000000F0D8F90400051E11DD0123019304AB7B
:1038100000930021012302AA00F0CEF90400280041
:1038200000F0D6F9002C02D1059A0A9B1A602000FC
:1038300007B030BD30B589B00493012302900391E5
:1038400005930121033322200692079300F0B2F979
:10385000041E0DDD0323019302AB0022002100931F
:10386000002300F0A9F90500200000F0B1F92C00B8
:10387000200009B030BDC04630B58BB00290039136
:1038800002A90491069308210EAB08930423059125
:10389000602007390792099300F08CF9041E10DDAF
:1038A000002300210193009304AA033300F084F95C
:1038B0000500200000F08CF9032D05D028000BB086
:1038C00030BD84256D42F9E78A3DF7E770B58CB0CD
:1038D000039204AA08920822099203AA0A920422D7
:1038E000119E0B92109A0490059106920793002E58
:1038F0001CD00121612000F05DF9041E13DD0123BD
:10390000019306AB00930021022308AA00F054F9AA
:103910000500200000F05CF9032D07D0079B336001
:1039200028000CB070BD84256D42F9E787256D42F3
:10393000F6E7C04630B589B002AB04930823029085
:10394000039105930121043362200692079300F04E
:1039500031F9041E11DD0123019306AB0093002110
:10396000012304AA00F028F90500200000F030F936
:10397000032D05D0280009B030BD84256D42F9E73C
:103980008A3DF7E730B587B002AB04930823029075
:10399000039101216320059300F00CF9041E10DD52
:1039A000002300210193009304AA013300F004F9DD
:1039B0000500200000F00CF9032D05D0280007B009
:1039C00030BD84256D42F9E78A3DF7E7002310B545
:1039D00086B0039303AB0493042301216420059371
:1039E00000F0E8F8041E0BDD0123019304AB009303
:1039F00000220023002100F0DFF8200000F0E8F8AA
:103A0000039806B010BDC04630B58BB0029003914C
:103A100002A90491069308210EAB08930423059193
:103A2000702007390792099300F0C4F8041E10DDD6
:103A3000002300210193009304AA033300F0BCF893
:103A40000500200000F0C4F8032D05D028000BB0BD
:103A500030BD84256D42F9E78A3DF7E770B58CB03B
:103A6000039204AA08920822099203AA0A92042245
:103A7000119E0B92109A0490059106920793002EC6
:103A80001CD00121712000F095F8041E13DD0123E4
:103A9000019306AB00930021022308AA00F08CF8E2
:103AA0000500200000F094F8032D07D0079B336039
:103AB00028000CB070BD84256D42F9E787256D4262
:103AC000F6E7C04630B589B002AB049308230290F4
:103AD000039105930121043372200692079300F0AD
:103AE00069F8041E11DD0123019306AB0093002148
:103AF000012304AA00F060F80500200000F068F837
:103B0000032D05D0280009B030BD84256D42F9E7AA
:103B10008A3DF7E730B587B002AB049308230290E3
:103B2000039101217320059300F044F8041E0EDD7B
:103B3000002300210193009304AA013300F03CF814
:103B40000500200000F044F8280007B030BD8425AF
:103B50006D42F9E770B58AB005AB069304231500F2
:103B600005900793002920D002260B6808934B6824
:103B7000039309930121412000F01CF8041E11DD7C
:103B80002B005A1E9341009501930021330006AA91
:103B900000F012F80500200000F01AF8002D01DBFB
:103BA000280000E001200AB070BD0126E2E7C0460F
:103BB0000FDF70470EDF704700B585B00293079B9B
:103BC0000191039301A9069BFFF7F2FF05B000BD29
:103BD00010DF704709DF704711DF704713DF704750
:103BE00015DF704716DF704719DF7047002310B5E7
:103BF000202108C005F03AFD10BDC046F0B545468D
:103C0000DE464E465746002380460C00E0B587B09E
:103C100016000021082204A803932500FEF722FFC6
:103C20004346642E3CD01E680023019302AA03235E
:103C30009446634400279A4628000A21FCF73CFE7C
:103C40005346A9463031CCB2BB4601372800DC557B
:103C50000A21FCF7ABFD4B460500092BECD85D466D
:103C600003AB9C46013D654405E0AA450FD04346A1
:103C70001E682C78013D4246731C46441360347123
:103C80001F2BF2D94046FFF7B1FFAA45EFD1019BA8
:103C9000D81907B03CBC90469946A246AB46F0BD49
:103CA000002CC0DA42461B685E1C16602D2243447D
:103CB0001A711F2E03D8012365420193B6E74046CF
:103CC000FFF794FF43461E68F5E7C046F0B5C646C9
:103CD000002300B584B006000C00904600210822A5
:103CE00002A80193FEF7BEFE6B4600250F22DF1CE3
:103CF000130041462340C95C280001357955240949
:103D0000F6D101AB9C46441E644403E0A7420DD0AB
:103D10002178013C33685A1CF318326019711F2A4C
:103D2000F4D93000FFF762FFA742F1D1280004B0B8
:103D300004BC9046F0BDC0460A7870B504000E0081
:103D40000025002A04D111E00135725D002A0DD052
:103D50002368581CE31820601A711F28F4D920002A
:103D60000135FFF743FF725D002AF1D1280070BDD5
:103D70000FB4F0B5CE464746002380B58BB012ACE9
:103D800040CC0025327800940193002A1BD03F4B91
:103D90003F4F99463F4B9846252A20D001A884469C
:103DA000019B0136591C634401911A711F2913D8D4
:103DB00001353278002AEFD10199002903D002A8F9
:103DC00005F054FC2D1828000BB00CBC9046994609
:103DD000F0BC08BC04B01847FFF708FFE8E77378A9
:103DE000252B46D0583BDBB2202B3BD89B00FB5801
:103DF0009F46414601A8FFF79FFF451902CC264A7E
:103E000001A8FFF763FF02362D18D2E7752202CC16
:103E100001A8FFF7F3FE02362D18CAE702CC01A86D
:103E2000FFF78AFF02362D18C3E7642202CC01A8EF
:103E3000FFF7E4FE02362D18BBE701A88446019B7C
:103E400002CC5A1C6344019219711F2A1AD80135F9
:103E50000236AEE702CC114A01A8FFF737FF02365F
:103E60002D18A6E7494601A8FFF766FF01362D1871
:103E70009FE701A88446019B591C634401911A7174
:103E80001F29E4D9FFF7B2FE0135E1E7A43E001097
:103E9000B83E0010A03E00103C3F00104C3F001008
:103EA000307800005B556E737570706F7274656466
:103EB000205461675D000000543E0010643E001015
:103EC000643E0010643E0010643E0010643E00102A
:103ED000643E0010643E0010643E0010643E00101A
:103EE000643E00103A3E00102A3E0010643E00106E
:103EF000643E0010643E0010643E00102A3E001034
:103F0000643E0010643E0010643E0010643E0010E9
:103F1000643E0010643E0010F23D0010643E00104C
:103F2000643E00101C3E0010643E00100C3E001069
:103F3000643E0010643E0010FC3D0010303132330E
:103F4000343536373839616263646566303132330F
:103F50003435363738394142434445460000000085
:103F600010B50A4C82B0236A042B0BD100F0E8F99B
:103F7000042301900021606801AAFFF731FE0020B0
:103F800002B010BD81204042FAE7C046209C0008E4
:103F900010B50C4C82B02369082B0FD108236A4658
:103FA00000216068FFF71AFE2369834206D1009A58
:103FB000019BA06800F09EF902B010BD8120404234
:103FC000FAE7C046209C000870B5134C88B02369FE
:103FD000082B1ED1236A0C2B1BD1043B00216068E7
:103FE00002AAFFF7FBFD2369834212D1029A039BC9
:103FF00005AE0096A06800F059F9051E02D0280011
:1040000008B070BD32000021236A6068FFF7E8FD48
:10401000F5E781256D42F2E7209C000810B5154CAC
:1040200088B02369082B21D16369042B1ED1043386
:104030000021606806AAFFF7D1FD2369834215D1EC
:1040400063690121606804AAFFF7C8FD63698342C0
:104050000CD105ABA0680293236A0193049B0093E3
:10406000069A079B00F0F6F808B010BD8120404288
:10407000FAE7C046209C000830B5144C87B023698D
:10408000A568082B1FD1A369042B1CD10433002180
:10409000606804AAFFF7A2FD2369834213D1A369D4
:1040A0000221606803AAFFF799FDA36983420AD140
:1040B000039B2800019363690093049A059B00F019
:1040C00099F807B030BD81204042FAE7209C0008F3
:1040D00070B50C4C0D002100FFF77EFD2368002B0E
:1040E00006DA02330CDB00216068FFF77BFD70BD50
:1040F000002B06D1A84701006068FFF773FDF6E7C3
:10410000FEE7FDE7209C0008F8B5CE46474680B59F
:1041100000F062F800281ED11A4B102499461A4B61
:104120001A4F98461A4E1B4D802101200906404225
:10413000FFF750FD030004420FD1820612D442065D
:1041400015D4020618D480204000034204D0290070
:10415000FFF7BEFFE8E7FEE7FEE749461020FFF75E
:10416000B7FFE1E741462020FFF7B2FFDCE7390067
:104170004020FFF7ADFFD7E731008020FFF7A8FF11
:10418000D2E7C046794000101D400010C93F001022
:10419000913F0010613F0010084B10B502000C0069
:1041A00058680B000121FFF719FD201A44426041B5
:1041B000812440422040813810BDC046209C000828
:1041C00010B50B000349020048680021FFF708FD05
:1041D00010BDC046209C000810B500F0B3F80028C0
:1041E00000D110BD00F0ECF90028FAD100F0AAF8D7
:1041F000F7E7C04630B51D001300140083B02B4311
:104200001FD00723079A9A431ED10123104A5B420D
:1042100012196B41002B09D0069B0200009320006D
:104220002900079B00F0D2F803B030BDFF2AF3D875
:10423000079B22000193069B00932B0022F0DEFADD
:10424000F2E787204042EFE786204042ECE7C04695
:1042500000FFFFFF30B51D001300140085B02B4395
:104260001FD00123104A5B4212196B41002B0BD067
:104270000A9B02000193099B200000932900089BE0
:1042800000F06EF805B030BDFF2AF1D80A9B22007D
:104290000293099B0193089B00932B0022F0B2FA32
:1042A000F0E787204042EDE700FFFFFF30B51D003B
:1042B0001300140083B02B4317D001230C4A5B4238
:1042C00012196B41002B07D0020029002000069B29
:1042D00000F018F903B030BDFF2AF5D8069B220084
:1042E00000932B0022F0BAFAF4E787204042F1E76E
:1042F00000FFFFFF70B51D00130014002B4316D004
:1043000001230E4A5B4212196B41002B08D00200B8
:104310002900200000F016F9030095330AD070BD83
:10432000FF2AF4D822002B0022F0B6FAF7E7872004
:104330004042F4E784204042F1E7C04600FFFFFF1F
:104340000020704710B5044C200000F01BFA034B0E
:10435000283C5C6010BDC046809C0008509C000852
:10436000F8B5174D1E002B0000F048FB041E01D0CD
:104370002000F8BD134F2868390000F0D9FC041E56
:1043800004D1FD69B54208D287246442802200210D
:1043900038001201FEF766FBEAE7069BAD1B9D4263
:1043A00000D91D00084829003018FFF709FF8022B6
:1043B000079B002138001D601201FEF753FBD7E771
:1043C000509C0008589C0008809C0008F0B5574697
:1043D0004E464546DE46E0B51700FB2283B09A46BE
:1043E0000C9B06000D00D200934200D970E0424BB6
:1043F0003A00994600F002FB041E4ED003008C33B5
:104400000FD03E4B98468022002140461201FEF715
:1044100029FB200003B03CBC90469946A246AB461F
:10442000F0BD364B80229846180012010021FEF79D
:1044300019FB43460C9A1A6252465A6202239B4663
:10444000002301932E4B0C9918009A46FFF7A4FE07
:10445000041ED8D128235B429C46E24453460C9A62
:1044600049465846DA6100F02DFA041ECBD14B467E
:104470005146186800F09CFC041EC4D14B463A001B
:104480003000290000F054FA041E2FD1019B002BAC
:1044900021D100F00BFB0400B5E7184B190098463A
:1044A0004B46186800F044FC041EACD143465B6ADE
:1044B000DB070AD4434652465A620C9A1A624B46AC
:1044C0001B68019301239B46BCE7852464429AE75D
:1044D000872464429DE700F0E9FA041E00D092E7C9
:1044E00000210198FFF716FB04008CE74B460021E2
:1044F0001868FFF70FFB86E7509C0008589C0008DF
:10450000809C0008F8B50D4E1D00330000F076FACF
:10451000041E01D02000F8BD094F3068390000F0BA
:1045200007FC041E03D1FB696B607B6AAB608022D1
:10453000002138001201FEF795FAEBE7509C0008C5
:10454000589C0008F8B5CE4647461B4B80B5060080
:104550000D009146984600F051FA041E04D0200048
:104560000CBC90469946F8BD4346144F1868390074
:1045700000F0DEFB041E04D17B6ADB0708D585242E
:1045800064428022002138001201FEF76BFAE6E750
:104590004A463000290000F055FA041EF1D1434686
:1045A0001D6800F083FA041EEBD128000021FFF7FC
:1045B000B1FA0400E5E7C046509C0008589C00088A
:1045C00010B500F0CBF810BD002310B582B0040088
:1045D00001A90120019300F04DFC002825D1019B89
:1045E0009C4205D80BE0019B01330193A34206D204
:1045F000012000F04DFC0028F5D002B010BD0220D3
:1046000001A900F037FC00280FD1019B9C4206D87D
:104610000020F2E7019B01330193A342F8D202206C
:1046200000F036FC0028F5D0E7E784204042E4E7BC
:10463000F0B583001A4C5E58A544CA686B460C005E
:104640003100184F1C31DA5105003A006846FEF778
:10465000B1F9F52269463000D20000F045FB002890
:1046600019D02369002B05D16419013323720E4B35
:104670009D44F0BD6A46D351F52269463000D20010
:1046800000F032FB431E984101234042984303301F
:1046900064192072EBE7022364192372E7E7C0462E
:1046A00054F8FFFFA4070000AC070000F0B5C646B1
:1046B000002300B5254C0020A544039300F0E8FB3F
:1046C000041E06D02000F723DB009D4404BC904666
:1046D000F0BD002003A900F0CDFB041EF2D100F0D4
:1046E000F3F9041EEED11A4D039E280000F048FA9B
:1046F000290004AC174A20001C31A650FEF75AF9D5
:10470000F52221002800D20000F0CAFA041E1AD1B6
:1047100000F01EFA041ED5D1F8260F4BF600EF5C10
:10472000984600942B0032000021781CFFF76CF9AA
:10473000041EC7D14246AB5D0398AB54AF55FFF79B
:1047400043FF0400BEE700F003FABBE748F8FFFFB1
:1047500058A40008A4070000C1070000F92210B502
:10476000074C00212000D200FEF77CF9F82301223B
:10477000DB00E25201232377FFF798FF10BDC0460C
:1047800058A40008002370B588B003AD2B81EB60FE
:104790002B6102AB68600193F823484E0022012090
:1047A00000210096DB000396FFF758F9002801D09E
:1047B00001232B7202AB01936B6800220093F82354
:1047C00002200021DB00FFF749F9002801D0012376
:1047D0006B7200F079F9041E02D0200008B070BDA1
:1047E000002006A900F046FB041E02D000F0B0F93C
:1047F000F3E7012002A900F03DFB041EF6D10220E0
:1048000007A900F037FB041EF0D12B69029A9342EE
:1048100000D028612B7A012B47D16B7A012B3FD135
:1048200000F096F9041ED8D1039B1B7F012B01D009
:1048300001232B7269680B7F012B01D001236B725E
:1048400002232A89FF339A4234D0F8222B7AD200ED
:10485000012B05D06B7A022B1AD1F8220123D2004A
:10486000B3523000FEF7A6F80021154BF05C013082
:10487000FFF750F9041E02D003008C33ADD1E86875
:10488000FFF7A2FE041EA8D1300000F06FF9A4E7E4
:10489000F8238022DB00520002200021F252E7E7D9
:1048A00029000120FFF7C4FEBAE729000020FFF726
:1048B000BFFEB2E7842464428FE7C04658A40008D4
:1048C000C107000070B50E0000282CD00025002480
:1048D000164B1A6859680A430CD10138621C3C2CEB
:1048E0000ED0203300280DD02500596814001A6816
:1048F0000A43F2D001343D2C01D02033E9E72C00EB
:1049000000280DD1033420000021FFF703F900280F
:1049100002D10020346070BD03008C33FBD1F8E776
:104920008E204042F7E787204042F4E788A4000841
:10493000F0B54F464646D646C0B58AB00600884612
:1049400017002B49202202A899460025FEF732F8CD
:10495000284C03E0013520343D2D3ED02368B3427E
:10496000F8D163684345F5D1A3689F42F2D16B1C2F
:104970005B019A46204C2022A244514602A8FEF731
:1049800019F8202200215046FEF76CF84B461868B3
:104990004346C21E5201A21853634B461663861E3D
:1049A0007601A6199763596810223000FEF702F8C5
:1049B000FFF77CFE071E09D0079A069B019213435E
:1049C0000ED1202200213000FEF74CF838000AB04A
:1049D0001CBC90469946A246F0BD0025064CD5E782
:1049E00001356D012022601902A9FDF7E3FFE8E718
:1049F000484E001088A4000858A4000870B500258F
:104A00000E4C03E0013520343D2D14D0266886423B
:104A1000F8D166688E42F5D1A668B242F2D1EA1C9E
:104A2000691C074D49011A60586810224919FDF7A1
:104A3000C1FF002070BD8C204042FBE788A4000825
:104A400058A4000830B5174B002489B003E00134A6
:104A500020333D2C1DD01D688542F8D15D688D4204
:104A6000F5D19D68AA42F2D10F4B01346401E418DC
:104A7000202221006846FDF79DFF20220021200012
:104A8000FDF7F0FFFFF712FE051E05D1280009B063
:104A900030BD8C256D42F9E7202269462000FDF7E4
:104AA00089FFF3E788A4000858A4000810B5044A59
:104AB000044B0021D05C0130FFF72CF810BDC0463C
:104AC00058A40008C107000030B589B002AC00212D
:104AD00018222000FDF7C6FF00230193C0239B008E
:104AE0000593164B1649049390239B01A3828023C0
:104AF00001A80693FEF7E8FD002801D009B030BDFB
:104B00000C23104A104901A8FEF70CFE00280FD113
:104B10000E4D20002A0001A9FEF738FE002807D11B
:104B200001A8FEF7A5FD0028E8D02888FEF7E0F8E8
:104B300001A8FEF79DFD84204042DFE702104006F9
:104B4000000F00B0684E0010010200002CAC0008FD
:104B5000054B10B51888FEF7CBF8002800D110BD22
:104B600084204042FBE7C0462CAC0008010010B591
:104B70000C2202481031FDF71DFF10BD20AC0008CB
:104B800030B5174D85B008222900040002A8FDF7B2
:104B900011FF29000422083101A8FDF70BFF02983C
:104BA00003990122002312184B41029203931A43E6
:104BB00002D1019B0133019302A908222800FDF7CD
:104BC000F9FE280001A904220830FDF7F3FE2000B9
:104BD0000C2229001030FDF7EDFE05B030BDC046B7
:104BE00020AC0008F0B51400020089B0109F050049
:104BF0001148119E008805970F9F029304970E9FFE
:104C0000019400910C230D49103206960397FEF78C
:104C1000DBFB041E0CD10F9B31689C4610393160C0
:104C2000102228006144FDF7C5FE200009B0F0BD48
:104C300084246442F9E7C0462CAC00080210400608
:104C4000F0B5C6460400904600B588B00E9E0F0031
:104C50009819102221001D00FDF7ACFE0E4B22001A
:104C60001888119B10360693109B0C4905930F9BD7
:104C70001032049343460396019302950C23009748
:104C8000FEF7FEFB002803D108B004BC9046F0BD3F
:104C900095204042F8E7C0462CAC000802104006C0
:104CA000030030B514008BB002000D4809AD008838
:104CB000069504931025002300910393029309495C
:104CC0001032059501940C33FEF77EFB002804D1C9
:104CD000099B102B01D10BB030BD84204042FAE774
:104CE0002CAC00080210400630B503008BB0150054
:104CF00002000D4809AC0088069400240594049431
:104D00001034029300910C2308491032039401954A
:104D1000FEF7B6FB099B1843434258419523404296
:104D2000184095380BB030BD2CAC0008021040067E
:104D3000F0B589B005AB01930B00103300938023CD
:104D40000D00002200211B010400FEF787FE002851
:104D500001D009B0F0BD059E0694FFF7B5FE00280E
:104D6000F7D134002F00104E0C3C1C3722003900C4
:104D70003000FDF71FFE07AB03930C4B0422029398
:104D8000280033000197009406A9FFF759FF002877
:104D900005D1079B9C4202D1FFF7DAFED9E7FFF766
:104DA000D7FE84204042D4E730AC0008E40700007E
:104DB000F0B5CE46474680B587B005000C00CE69F9
:104DC0000490FFF781FE002804D007B00CBC904689
:104DD0009946F0BD1C23370098462000FFF7D0FE0F
:104DE00005AB0393154B0C370293154BA044994622
:104DF0000193042243462000009704A9FFF7F2FE26
:104E0000002815D1059B9F4212D13A0049464046E1
:104E1000FDF7D0FDFFF79CFE0028D6D1230032001D
:104E200000900021280010331832FEF7EDFDCCE78A
:104E3000FFF78EFE84204042C7E7C046F40700001B
:104E400030AC00080000000000000000000000007E
:104E50000000000000000000000000000000000052
:104E6000000000000000000073746F726167655FEE
:104E70006B657900022805D8044B8000C3580020D8
:104E80000B60704784204042FBE7C046049C00084A
:104E9000084B1B78002B01D0022802D98420404205
:104EA0007047054A80008358591CF7D0013383505E
:104EB0000020F5E7009C0008049C00080022014B3C
:104EC0001A707047009C00080122014B1A7070474D
:104ED000009C0008022805D8044B8000C35800201D
:104EE0000B60704784204042FBE7C046049C0008EA
:104EF000084B1B78002B01D0022802D984204042A5
:104F00007047054A80008358591CF7D001338350FD
:104F10000020F5E7009C0008049C0008022808D83F
:104F2000054A80008358002B03D0013B83500020AA
:104F300001E0842040427047049C0008000000000B
:104F400010B50B4C82B02369082B0ED108236A469A
:104F500000216068FEF742FE082806D1009A019BF6
:104F6000A06800F065FA02B010BD81204042FAE767
:104F7000E0C2000870B5134C88B02369082B1DD11E
:104F8000236A0C2B1AD100216068043B02AAFEF7A9
:104F900025FE082812D1029A039B05AE0096A06850
:104FA00000F010FA051E02D0280008B070BD0C23D6
:104FB000320000216068FEF713FEF5E781256D429F
:104FC000F2E7C046E0C2000830B5144C89B023694E
:104FD000082B1FD16369042B1CD1002160680433A6
:104FE00006AA256AFEF7FAFD082813D10423012139
:104FF000606804AAFEF7F2FD04280BD105ABA06897
:105000000293049B01950093069A079B00F052F9C6
:1050100009B030BD81204042FAE7C046E0C2000836
:1050200030B5134C87B02369082B1DD1A369042B1D
:105030001AD100216068043304AA6569FEF7CEFD29
:10504000082811D104230221606803AAFEF7C6FDD7
:10505000042809D1039BA06801930095049A059B3D
:1050600000F0B0F807B030BD81204042FAE7C046FA
:10507000E0C2000870B50D4C0D002100FEF7ACFD3C
:10508000002808D12368002B06DA02330CDB00214C
:105090006068FEF7A7FD70BD002B06D1A847010090
:1050A0006068FEF79FFDF6E7FEE7FDE7E0C2000857
:1050B000F0B5C64600B500F053F8002824D1184BCF
:1050C00010249846174F184E184D802101200906CC
:1050D0004042FEF77FFD044211D1830616D44306F9
:1050E00019D4030611D529008020FFF7C3FF8021C2
:1050F000012009064042FEF76DFD0442EDD0414615
:105100001020FFF7B7FFE0E7FEE7FEE739002020B9
:10511000FFF7B0FFD9E731004020FFF7ABFFD4E73E
:1051200021500010C94F0010754F0010414F001062
:1051300010B50B000349020048680121FEF74EFD3F
:1051400010BDC046E0C2000810B50B0003490200C4
:1051500048680021FEF744FD10BDC046E0C20008CB
:1051600010B5002000F0B8F9144C0100200000F048
:10517000ADFA00280BD0200000F0CCFA002800D0B7
:1051800010BD00F0A9F90100200000F09FFA0120F5
:1051900000F0A2F90A4C0100200000F097FA002864
:1051A000EED0200000F0B6FA0028E9D1013000F07E
:1051B00093F90100200000F089FAE1E710CB000824
:1051C00024CB0008F0B54546DE4657464E46110052
:1051D000E0B589B00500129C19435BD00721139FED
:1051E0008F4354D107932D4B059099461800069292
:1051F00005A90422FDF7DEFB4B460822181D06A96F
:10520000FDF7D8FB80235B009D423DD0244B9A469E
:10521000244D49462A00504600F080FA00282DD03F
:1052200003008C3323D1C026139BB6021E431E4BB2
:10523000984680231B019B4604E01C4B7F191E40AF
:10524000641B14D025005C4501D980252D0129005F
:105250004046FFF76DFF4346320002934946230064
:1052600050460197009500F07FFA0028E5D009B07C
:105270003CBC90469946A246AB46F0BDAB68DB0706
:10528000D1D585204042F2E7094B9A46C0E78620F7
:105290004042ECE787204042E9E7C04638CB0008AF
:1052A00010CB000844CB000810C30008FFFFFCFF30
:1052B00024CB0008F0B55746DE464E4645468621CB
:1052C000E0B587B00400109F4900884252D0110019
:1052D000194367D00593364B039099461800049202
:1052E00003A90422FDF766FB4B460822181D04A9FA
:1052F000FDF760FB80235B009C4256D02D4B9A4605
:105300002D4C49462200504600F008FA061E27D1CF
:105310002468BC4246D3119BE41B9C4228D8129BB4
:105320001C60264B984680231B019B4606E0290003
:105330004046FFF709FF7F19641B11D025005C452B
:1053400001D980252D0143462A00009349463B00A0
:10535000504600F01BFB061EE9D00023129A136092
:10536000300007B03CBC90469946A246AB46F0BD23
:105370001C00D4E71100194314D0059380210C4B75
:105380004900994618000391049203A90422FDF7ED
:1053900011FB4B460822181D04A9FDF70BFB084B17
:1053A0009A46ADE787267642DAE7054B9A46A7E7A5
:1053B00038CB000810CB000844CB000810C300080D
:1053C00024CB0008110070B584B00400089E194376
:1053D00022D0134D0190029201A9042228000393C8
:1053E000FDF7E8FA0822281D02A9FDF7E3FA802359
:1053F0005B009C420ED00B480B4C2900220000F0B1
:105400008DF9002804D1236833607360A368B3600A
:1054100004B070BD0548EFE787204042F8E7C0467A
:1054200038CB000810CB000844CB000824CB000880
:10543000862170B54900040084B0884226D011004E
:10544000194338D0204D0190029201A9042228006E
:105450000393FDF7AFFA0822281D02A9FDF7AAFA67
:1054600080235B009C422CD0184E194C290022004E
:10547000300000F053F9002806D1A368DB071DD4E3
:105480002900300000F070FA04B070BD110019431B
:1054900011D080210C4D49000191029201A90422F2
:1054A00028000393FDF786FA0822281D02A9FDF7BC
:1054B00081FA084ED9E787204042E5E7852040423F
:1054C000E2E7044ED1E7C04638CB000810CB000815
:1054D00044CB000824CB0008194B820010B5D458E7
:1054E00000281FD001281BD1210020001C311830BA
:1054F00006F0A4FC06F0CAFC2830208506F0DEFC8D
:1055000003306085618CE069FBF750F9A0842000CE
:1055100000F070FA4342584140420440200010BD60
:105520000024FBE7210020001C31183006F02EFC7F
:1055300006F054FC208506F069FC01306085E1E747
:10554000D0630010F0B54E4645465746DE46E0B5FE
:105550001C4C9946A5448E9B8F9D06008A46984612
:105560000392002D2BD080239B009B4610E05146D8
:105570003000039BB768009404AAB847002815D1EF
:10558000039BA0449C46A44463462D1B039316D062
:105590002C005D4501D98024A400434649463000D3
:1055A0007768009404AAB8470028E0D085239B00C0
:1055B0009D443CBC90469946A246AB46F0BD0020B7
:1055C000F4E7C046ECFDFFFFF0B54E464546DE462B
:1055D0005746E0B503688DB004AA05000E005C8C48
:1055E00000F0EEFB002806D00DB03CBC904699467A
:1055F000A246AB46F0BD09A800F08AFE002861D1A2
:10560000059B20229946079B002104A89A46049FE7
:10561000FDF728FA3100280004AA00F0A3FD0028B5
:10562000E2D12A68A046538D002B2FD000230024FE
:105630009B460BE02100280004AA00F093FD0028FF
:10564000D2D12A68538D0134A34221D9A642F9D080
:105650002100280004AA00F0B3FB0028C4D1049B59
:105660000393BB42E6D109A800F052FE0028E1D125
:10567000059B4B45DED9984500D9984652469B1A62
:105680000593079B9C460393E344D3E700239B4683
:105690005B4601934B46524600933900434628002F
:1056A00000F0E6F900289FD1002F07D0280000F075
:1056B0005BFC002802D08420404295E7280000F0DF
:1056C00057FB91E78C2040428EE7C04630B504007E
:1056D00083B000291AD0016000F020FB051E02D023
:1056E000280003B030BD8021200001AA490400F049
:1056F000DFFB002804D003008C33F1D00500EFE776
:1057000020000199FFF760FF0500E9E792256D424F
:10571000E6E7C04610B500F03DFD10BD70B58CB099
:10572000160003AA04000D0000F09AFB002818D10F
:105730002000039904AA00F043FB002801D00CB01C
:1057400070BD0C22280009A9FDF7CAF9002808D16C
:10575000079B7360069B0193336002AB1B8BB360A6
:10576000EDE78C204042EAE7F0B54746CE4680B5EB
:1057700098467B4B93B00593069304000E001500EA
:10578000130E00D0E8E005AA00F06AFB002800D163
:105790009CE003008C3300D08BE0EB0300D4D8E016
:1057A000069B6F4A934200D0A2E023681B8D4345BD
:1057B00000D2D1E06B49059B8C4663441A00531E0E
:1057C0009A4107AB994603930AAF06AB01933100A8
:1057D00043462000D2B20297009500F0DDFB00287E
:1057E00067D11A9B002B29D01B9BBA6893426AD8B9
:1057F00019001A9AF86800F07FFD002863D11C9BFD
:105800003A0001931A9B4946009320001B9B00F02D
:10581000A5F9002857D11B9A1A9B9446BA6863448D
:10582000934200D972E00A992000079D00F070FAB7
:10583000290007900A9A200000F028FC4A46200020
:105840000A9900F027FC00283DD13A002000069973
:1058500000F088FC002836D1069B059D9D4200D9AA
:105860001D002A000021200000F036FA00282AD16D
:10587000059A3B4B9A4202D0069B9A424CD1236830
:1058800020005A8D691C00F027FA00281BD10A9BC2
:10589000002B13D11A9B002B10D0200000F068FAC7
:1058A000002806D105992E4B994202D0069B9942B9
:1058B0002ED113B00CBC90469946F0BD200000F0EC
:1058C00053FB0028E9D084204042F2E70AAF3A00B7
:1058D0002000059900F074FA00283AD1AB0312D5E4
:1058E000FB68434527D1059BB8603D61069358E7A7
:1058F00007AB1A0020000A99994600F0FDFA00282B
:10590000E1D10AAF6DE7059B06934AE7BB608AE7E2
:105910002000FFF759FECCE79A4200D21A0020007F
:10592000691C00F0D9F90028CDD1069B059D9D4248
:10593000A5D21D00A3E780233A695B04134320002E
:105940003A0005993B6100F00DFC002800D127E7E3
:10595000B9E78C204042ACE787204042A9E7C04627
:10596000FFFF00000100FFFF10B582B001AA040094
:1059700000F076FA002805D120000199FFF724FEF7
:1059800002B010BD8C204042FAE7C046F0B58FB09F
:10599000170005AA04000D001E0000F061FA00289F
:1059A00025D12000059906AA00F00AFA00281BD18B
:1059B0000C2228000BA9FDF793F8002817D1089BAB
:1059C0003A0031001800039300F096FC002801D043
:1059D0000FB0F0BD149B3200009320003B0006A9DD
:1059E00000F0A0F80028F3D084204042F0E78C209B
:1059F0004042EDE730B5828C0100012A29D9032A03
:105A00001AD00020022A26D14C8C002023004D8D74
:105A10000A8D6D01143B5B1B93424041922340422F
:105A200018409238863BA24201D992204042EB189E
:105A300008339C4219D330BD448C038DA34211D945
:105A400092204D8D40426D01911E4A0052189300E4
:105A5000EDE7922040424C8C0B8DA342F0D84D8D47
:105A60006D01F1E792204042F9E792204042E2E7DF
:105A7000F0B5C64600B588B0170005AA05000E00AF
:105A8000984600F039FA041E04D0200008B004BC87
:105A90009046F0BD079B31009C4628006744039365
:105AA000079700F035F90F9B0700002B22D1069ACB
:105AB0000E9B9A420AD20E9B39009B1A01932868CA
:105AC000059B0092FFF73EFD002821D132002800FF
:105AD000059900F0DBFA3100280005AA059700F0CF
:105AE000D9FA041E17D1002ECFD02868C368984772
:105AF0000400CAE7059B010003930F9B0E9A0193D4
:105B0000434628680093039BFFF71CFD0028CED076
:105B100084246442B9E732003900280000F0B6FA64
:105B2000B3E7C046F0B587B00E001500096803AAB8
:105B300007001C0000F0E0F900280BD103994B1C72
:105B400008D038687368009444680C9AEB18A04732
:105B500007B0F0BD84204042FAE7C046F0B54746A2
:105B6000CE46160080B50F0083B011681C000500FA
:105B700000F0CEF873687A689C466444A31A8046A5
:105B80000100019328683B680092FFF7DBFC0028C6
:105B90000AD10A9B286800938368414699460B9A6C
:105BA0002300C847002804D003B00CBC9046994697
:105BB000F0BDF16873688C4663441A002968B868C0
:105BC000498C3B68091A891A01912868414600925C
:105BD000FFF7B8FC0028E7D13368002BE4D0286831
:105BE000C3689847E0E7C04670B5082586B0040052
:105BF0000068009500230021466802AAB0470028EB
:105C000019D16B461B7B012B15D16B462C262068C6
:105C10005A7B835D9A420FD000950023012145688D
:105C200004AAA847002821D0012200230020E36015
:105C3000226106B070BD2068082300930121002373
:105C4000456804AAA84700280AD16B461B7D012B92
:105C500006D16B465A7D2C232168CB5C9A4202D137
:105C600084204042E5E700220123DFE76B461B7DED
:105C7000012BD9D16A46517D2268925D8A4215D0A6
:105C80006A46507B002909D100220128CED18842E2
:105C90009B4100225B4288425241C7E70028F6D16F
:105CA0004A1E53425341511E8A41BFE71A00002346
:105CB000BCE7C04610B50400006821690369984735
:105CC000002807D123689A8C022A03D9180061683A
:105CD0001A69904710BDC04670B5050000680E00F7
:105CE000818C140082B0022910D002394A00511868
:105CF00089007201A41B083252186401EB682969FB
:105D000001940092FFF71EFC02B070BD0C21F0E779
:105D1000002901D0406870470069FCE730B50400F5
:105D2000006883B003689847002801D003B030BDF5
:105D30002000FFF759FF002816D12200082301CACE
:105D4000009345680023E168A84700280CD1237A16
:105D5000012B09D121682B33627ACB5C9A4203D0A4
:105D60002000FFF7A7FFE1E784204042DEE7C046BE
:105D70002C2230B5437A04000133DBB24372006851
:105D800083B0825C9A4217D0082300938568002371
:105D90002169221DA847002804D12068C3689847BC
:105DA000002801D003B030BD2369E26820002261E1
:105DB000E360FFF77FFFF5E700236372E4E7C04687
:105DC00070B5050000681400828C82B0022A3ED0B3
:105DD000023A53009A18920049010B0008339B18AD
:105DE0002022009246682200E968B047061E2BD1A7
:105DF0002B6822689B8C022B2BD0023B9A422CD220
:105E00002000143000F084FA00281DD12868E268D0
:105E1000038D9A4221D8A3689A421ED323686168F1
:105E2000002B0CD1858C438D022D14D0023D6C00CB
:105E30006419A4005B0108331B1999420DD3408CEF
:105E400000F05AFA002808D1300002B070BD0C22D0
:105E5000C2E70123D2E70C24ECE798267642F3E769
:105E6000F0B5036805005B8D0E00170089B0002BAC
:105E700018D000240BE00C22310005A8FCF730FEFE
:105E8000002812D02B6801345B8DA3420AD96A46E0
:105E900021002800FFF794FF0028ECD08420404226
:105EA00009B0F0BD8C204042FAE73C60F8E7C046FC
:105EB000F0B5036805005B8D0E0017008BB0002B5A
:105EC00015D0002408E0069B0193334212D12B68C1
:105ED00001345B8DA3420AD92100280002AAFFF7F2
